{
  "_format": "hh-sol-artifact-1",
  "contractName": "Token",
  "sourceName": "contracts/ERC20_BASE_PERMIT.sol",
  "abi": [
    {
      "inputs": [
        {
          "internalType": "string",
          "name": "name",
          "type": "string"
        },
        {
          "internalType": "string",
          "name": "symbol",
          "type": "string"
        },
        {
          "internalType": "uint256",
          "name": "max_supply",
          "type": "uint256"
        }
      ],
      "stateMutability": "nonpayable",
      "type": "constructor"
    },
    {
      "anonymous": false,
      "inputs": [
        {
          "indexed": true,
          "internalType": "address",
          "name": "owner",
          "type": "address"
        },
        {
          "indexed": true,
          "internalType": "address",
          "name": "spender",
          "type": "address"
        },
        {
          "indexed": false,
          "internalType": "uint256",
          "name": "value",
          "type": "uint256"
        }
      ],
      "name": "Approval",
      "type": "event"
    },
    {
      "anonymous": false,
      "inputs": [
        {
          "indexed": true,
          "internalType": "address",
          "name": "from",
          "type": "address"
        },
        {
          "indexed": true,
          "internalType": "address",
          "name": "to",
          "type": "address"
        },
        {
          "indexed": false,
          "internalType": "uint256",
          "name": "value",
          "type": "uint256"
        }
      ],
      "name": "Transfer",
      "type": "event"
    },
    {
      "inputs": [],
      "name": "DOMAIN_SEPARATOR",
      "outputs": [
        {
          "internalType": "bytes32",
          "name": "",
          "type": "bytes32"
        }
      ],
      "stateMutability": "view",
      "type": "function"
    },
    {
      "inputs": [
        {
          "internalType": "address",
          "name": "owner",
          "type": "address"
        },
        {
          "internalType": "address",
          "name": "spender",
          "type": "address"
        }
      ],
      "name": "allowance",
      "outputs": [
        {
          "internalType": "uint256",
          "name": "",
          "type": "uint256"
        }
      ],
      "stateMutability": "view",
      "type": "function"
    },
    {
      "inputs": [
        {
          "internalType": "address",
          "name": "spender",
          "type": "address"
        },
        {
          "internalType": "uint256",
          "name": "amount",
          "type": "uint256"
        }
      ],
      "name": "approve",
      "outputs": [
        {
          "internalType": "bool",
          "name": "",
          "type": "bool"
        }
      ],
      "stateMutability": "nonpayable",
      "type": "function"
    },
    {
      "inputs": [
        {
          "internalType": "address",
          "name": "account",
          "type": "address"
        }
      ],
      "name": "balanceOf",
      "outputs": [
        {
          "internalType": "uint256",
          "name": "",
          "type": "uint256"
        }
      ],
      "stateMutability": "view",
      "type": "function"
    },
    {
      "inputs": [
        {
          "internalType": "uint256",
          "name": "amount",
          "type": "uint256"
        }
      ],
      "name": "burn",
      "outputs": [],
      "stateMutability": "nonpayable",
      "type": "function"
    },
    {
      "inputs": [
        {
          "internalType": "address",
          "name": "account",
          "type": "address"
        },
        {
          "internalType": "uint256",
          "name": "amount",
          "type": "uint256"
        }
      ],
      "name": "burnFrom",
      "outputs": [],
      "stateMutability": "nonpayable",
      "type": "function"
    },
    {
      "inputs": [],
      "name": "decimals",
      "outputs": [
        {
          "internalType": "uint8",
          "name": "",
          "type": "uint8"
        }
      ],
      "stateMutability": "view",
      "type": "function"
    },
    {
      "inputs": [
        {
          "internalType": "address",
          "name": "spender",
          "type": "address"
        },
        {
          "internalType": "uint256",
          "name": "subtractedValue",
          "type": "uint256"
        }
      ],
      "name": "decreaseAllowance",
      "outputs": [
        {
          "internalType": "bool",
          "name": "",
          "type": "bool"
        }
      ],
      "stateMutability": "nonpayable",
      "type": "function"
    },
    {
      "inputs": [
        {
          "internalType": "address",
          "name": "spender",
          "type": "address"
        },
        {
          "internalType": "uint256",
          "name": "addedValue",
          "type": "uint256"
        }
      ],
      "name": "increaseAllowance",
      "outputs": [
        {
          "internalType": "bool",
          "name": "",
          "type": "bool"
        }
      ],
      "stateMutability": "nonpayable",
      "type": "function"
    },
    {
      "inputs": [],
      "name": "name",
      "outputs": [
        {
          "internalType": "string",
          "name": "",
          "type": "string"
        }
      ],
      "stateMutability": "view",
      "type": "function"
    },
    {
      "inputs": [
        {
          "internalType": "address",
          "name": "owner",
          "type": "address"
        }
      ],
      "name": "nonces",
      "outputs": [
        {
          "internalType": "uint256",
          "name": "",
          "type": "uint256"
        }
      ],
      "stateMutability": "view",
      "type": "function"
    },
    {
      "inputs": [
        {
          "internalType": "address",
          "name": "owner",
          "type": "address"
        },
        {
          "internalType": "address",
          "name": "spender",
          "type": "address"
        },
        {
          "internalType": "uint256",
          "name": "value",
          "type": "uint256"
        },
        {
          "internalType": "uint256",
          "name": "deadline",
          "type": "uint256"
        },
        {
          "internalType": "uint8",
          "name": "v",
          "type": "uint8"
        },
        {
          "internalType": "bytes32",
          "name": "r",
          "type": "bytes32"
        },
        {
          "internalType": "bytes32",
          "name": "s",
          "type": "bytes32"
        }
      ],
      "name": "permit",
      "outputs": [],
      "stateMutability": "nonpayable",
      "type": "function"
    },
    {
      "inputs": [],
      "name": "symbol",
      "outputs": [
        {
          "internalType": "string",
          "name": "",
          "type": "string"
        }
      ],
      "stateMutability": "view",
      "type": "function"
    },
    {
      "inputs": [],
      "name": "totalSupply",
      "outputs": [
        {
          "internalType": "uint256",
          "name": "",
          "type": "uint256"
        }
      ],
      "stateMutability": "view",
      "type": "function"
    },
    {
      "inputs": [
        {
          "internalType": "address",
          "name": "to",
          "type": "address"
        },
        {
          "internalType": "uint256",
          "name": "amount",
          "type": "uint256"
        }
      ],
      "name": "transfer",
      "outputs": [
        {
          "internalType": "bool",
          "name": "",
          "type": "bool"
        }
      ],
      "stateMutability": "nonpayable",
      "type": "function"
    },
    {
      "inputs": [
        {
          "internalType": "address",
          "name": "from",
          "type": "address"
        },
        {
          "internalType": "address",
          "name": "to",
          "type": "address"
        },
        {
          "internalType": "uint256",
          "name": "amount",
          "type": "uint256"
        }
      ],
      "name": "transferFrom",
      "outputs": [
        {
          "internalType": "bool",
          "name": "",
          "type": "bool"
        }
      ],
      "stateMutability": "nonpayable",
      "type": "function"
    }
  ],
  "bytecode": "0x6101406040523480156200001257600080fd5b5060405162002d8038038062002d808339818101604052810190620000389190620005e3565b82806040518060400160405280600181526020017f3100000000000000000000000000000000000000000000000000000000000000815250858581600390805190602001906200008a9291906200035b565b508060049080519060200190620000a39291906200035b565b50505060008280519060200120905060008280519060200120905060007f8b73c3c69bb8fe3d512ecc4cf759cc79239f7b179b0ffacaa9a75d522b39400f90508260e081815250508161010081815250504660a081815250506200010f8184846200019e60201b60201c565b608081815250503073ffffffffffffffffffffffffffffffffffffffff1660c08173ffffffffffffffffffffffffffffffffffffffff168152505080610120818152505050505050505062000195336200016e620001da60201b60201c565b600a6200017c91906200080d565b836200018991906200085e565b620001e360201b60201c565b50505062000aef565b60008383834630604051602001620001bb95949392919062000930565b6040516020818303038152906040528051906020012090509392505050565b60006012905090565b600073ffffffffffffffffffffffffffffffffffffffff168273ffffffffffffffffffffffffffffffffffffffff16141562000256576040517f08c379a00000000000000000000000000000000000000000000000000000000081526004016200024d90620009ee565b60405180910390fd5b6200026a600083836200035160201b60201c565b80600260008282546200027e919062000a10565b92505081905550806000808473ffffffffffffffffffffffffffffffffffffffff1673ffffffffffffffffffffffffffffffffffffffff168152602001908152602001600020600082825401925050819055508173ffffffffffffffffffffffffffffffffffffffff16600073ffffffffffffffffffffffffffffffffffffffff167fddf252ad1be2c89b69c2b068fc378daa952ba7f163c4a11628f55a4df523b3ef8360405162000331919062000a6d565b60405180910390a36200034d600083836200035660201b60201c565b5050565b505050565b505050565b828054620003699062000ab9565b90600052602060002090601f0160209004810192826200038d5760008555620003d9565b82601f10620003a857805160ff1916838001178555620003d9565b82800160010185558215620003d9579182015b82811115620003d8578251825591602001919060010190620003bb565b5b509050620003e89190620003ec565b5090565b5b8082111562000407576000816000905550600101620003ed565b5090565b6000604051905090565b600080fd5b600080fd5b600080fd5b600080fd5b6000601f19601f8301169050919050565b7f4e487b7100000000000000000000000000000000000000000000000000000000600052604160045260246000fd5b620004748262000429565b810181811067ffffffffffffffff821117156200049657620004956200043a565b5b80604052505050565b6000620004ab6200040b565b9050620004b9828262000469565b919050565b600067ffffffffffffffff821115620004dc57620004db6200043a565b5b620004e78262000429565b9050602081019050919050565b60005b8381101562000514578082015181840152602081019050620004f7565b8381111562000524576000848401525b50505050565b6000620005416200053b84620004be565b6200049f565b90508281526020810184848401111562000560576200055f62000424565b5b6200056d848285620004f4565b509392505050565b600082601f8301126200058d576200058c6200041f565b5b81516200059f8482602086016200052a565b91505092915050565b6000819050919050565b620005bd81620005a8565b8114620005c957600080fd5b50565b600081519050620005dd81620005b2565b92915050565b600080600060608486031215620005ff57620005fe62000415565b5b600084015167ffffffffffffffff81111562000620576200061f6200041a565b5b6200062e8682870162000575565b935050602084015167ffffffffffffffff8111156200065257620006516200041a565b5b620006608682870162000575565b92505060406200067386828701620005cc565b9150509250925092565b7f4e487b7100000000000000000000000000000000000000000000000000000000600052601160045260246000fd5b60008160011c9050919050565b6000808291508390505b60018511156200070b57808604811115620006e357620006e26200067d565b5b6001851615620006f35780820291505b80810290506200070385620006ac565b9450620006c3565b94509492505050565b600082620007265760019050620007f9565b81620007365760009050620007f9565b81600181146200074f57600281146200075a5762000790565b6001915050620007f9565b60ff8411156200076f576200076e6200067d565b5b8360020a9150848211156200078957620007886200067d565b5b50620007f9565b5060208310610133831016604e8410600b8410161715620007ca5782820a905083811115620007c457620007c36200067d565b5b620007f9565b620007d98484846001620006b9565b92509050818404811115620007f357620007f26200067d565b5b81810290505b9392505050565b600060ff82169050919050565b60006200081a82620005a8565b9150620008278362000800565b9250620008567fffffffffffffffffffffffffffffffffffffffffffffffffffffffffffffffff848462000714565b905092915050565b60006200086b82620005a8565b91506200087883620005a8565b9250817fffffffffffffffffffffffffffffffffffffffffffffffffffffffffffffffff0483118215151615620008b457620008b36200067d565b5b828202905092915050565b6000819050919050565b620008d481620008bf565b82525050565b620008e581620005a8565b82525050565b600073ffffffffffffffffffffffffffffffffffffffff82169050919050565b60006200091882620008eb565b9050919050565b6200092a816200090b565b82525050565b600060a082019050620009476000830188620008c9565b620009566020830187620008c9565b620009656040830186620008c9565b620009746060830185620008da565b6200098360808301846200091f565b9695505050505050565b600082825260208201905092915050565b7f45524332303a206d696e7420746f20746865207a65726f206164647265737300600082015250565b6000620009d6601f836200098d565b9150620009e3826200099e565b602082019050919050565b6000602082019050818103600083015262000a0981620009c7565b9050919050565b600062000a1d82620005a8565b915062000a2a83620005a8565b9250827fffffffffffffffffffffffffffffffffffffffffffffffffffffffffffffffff0382111562000a625762000a616200067d565b5b828201905092915050565b600060208201905062000a846000830184620008da565b92915050565b7f4e487b7100000000000000000000000000000000000000000000000000000000600052602260045260246000fd5b6000600282049050600182168062000ad257607f821691505b6020821081141562000ae95762000ae862000a8a565b5b50919050565b60805160a05160c05160e051610100516101205161224162000b3f6000396000610df201526000610e3401526000610e1301526000610d4801526000610d9e01526000610dc701526122416000f3fe608060405234801561001057600080fd5b50600436106101005760003560e01c806370a0823111610097578063a457c2d711610066578063a457c2d7146102c3578063a9059cbb146102f3578063d505accf14610323578063dd62ed3e1461033f57610100565b806370a082311461022957806379cc6790146102595780637ecebe001461027557806395d89b41146102a557610100565b8063313ce567116100d3578063313ce567146101a15780633644e515146101bf57806339509351146101dd57806342966c681461020d57610100565b806306fdde0314610105578063095ea7b31461012357806318160ddd1461015357806323b872dd14610171575b600080fd5b61010d61036f565b60405161011a9190611454565b60405180910390f35b61013d6004803603810190610138919061150f565b610401565b60405161014a919061156a565b60405180910390f35b61015b610424565b6040516101689190611594565b60405180910390f35b61018b600480360381019061018691906115af565b61042e565b604051610198919061156a565b60405180910390f35b6101a961045d565b6040516101b6919061161e565b60405180910390f35b6101c7610466565b6040516101d49190611652565b60405180910390f35b6101f760048036038101906101f2919061150f565b610475565b604051610204919061156a565b60405180910390f35b6102276004803603810190610222919061166d565b6104ac565b005b610243600480360381019061023e919061169a565b6104c0565b6040516102509190611594565b60405180910390f35b610273600480360381019061026e919061150f565b610508565b005b61028f600480360381019061028a919061169a565b610528565b60405161029c9190611594565b60405180910390f35b6102ad610578565b6040516102ba9190611454565b60405180910390f35b6102dd60048036038101906102d8919061150f565b61060a565b6040516102ea919061156a565b60405180910390f35b61030d6004803603810190610308919061150f565b610681565b60405161031a919061156a565b60405180910390f35b61033d6004803603810190610338919061171f565b6106a4565b005b610359600480360381019061035491906117c1565b6107e6565b6040516103669190611594565b60405180910390f35b60606003805461037e90611830565b80601f01602080910402602001604051908101604052809291908181526020018280546103aa90611830565b80156103f75780601f106103cc576101008083540402835291602001916103f7565b820191906000526020600020905b8154815290600101906020018083116103da57829003601f168201915b5050505050905090565b60008061040c61086d565b9050610419818585610875565b600191505092915050565b6000600254905090565b60008061043961086d565b9050610446858285610a40565b610451858585610acc565b60019150509392505050565b60006012905090565b6000610470610d44565b905090565b60008061048061086d565b90506104a181858561049285896107e6565b61049c9190611891565b610875565b600191505092915050565b6104bd6104b761086d565b82610e5e565b50565b60008060008373ffffffffffffffffffffffffffffffffffffffff1673ffffffffffffffffffffffffffffffffffffffff168152602001908152602001600020549050919050565b61051a8261051461086d565b83610a40565b6105248282610e5e565b5050565b6000610571600560008473ffffffffffffffffffffffffffffffffffffffff1673ffffffffffffffffffffffffffffffffffffffff16815260200190815260200160002061102c565b9050919050565b60606004805461058790611830565b80601f01602080910402602001604051908101604052809291908181526020018280546105b390611830565b80156106005780601f106105d557610100808354040283529160200191610600565b820191906000526020600020905b8154815290600101906020018083116105e357829003601f168201915b5050505050905090565b60008061061561086d565b9050600061062382866107e6565b905083811015610668576040517f08c379a000000000000000000000000000000000000000000000000000000000815260040161065f90611959565b60405180910390fd5b6106758286868403610875565b60019250505092915050565b60008061068c61086d565b9050610699818585610acc565b600191505092915050565b834211156106e7576040517f08c379a00000000000000000000000000000000000000000000000000000000081526004016106de906119c5565b60405180910390fd5b60007f6e71edae12b1b97f4d1f60370fef10105fa2faae0126114a169c64845d6126c98888886107168c61103a565b8960405160200161072c969594939291906119f4565b604051602081830303815290604052805190602001209050600061074f82611098565b9050600061075f828787876110b2565b90508973ffffffffffffffffffffffffffffffffffffffff168173ffffffffffffffffffffffffffffffffffffffff16146107cf576040517f08c379a00000000000000000000000000000000000000000000000000000000081526004016107c690611aa1565b60405180910390fd5b6107da8a8a8a610875565b50505050505050505050565b6000600160008473ffffffffffffffffffffffffffffffffffffffff1673ffffffffffffffffffffffffffffffffffffffff16815260200190815260200160002060008373ffffffffffffffffffffffffffffffffffffffff1673ffffffffffffffffffffffffffffffffffffffff16815260200190815260200160002054905092915050565b600033905090565b600073ffffffffffffffffffffffffffffffffffffffff168373ffffffffffffffffffffffffffffffffffffffff1614156108e5576040517f08c379a00000000000000000000000000000000000000000000000000000000081526004016108dc90611b33565b60405180910390fd5b600073ffffffffffffffffffffffffffffffffffffffff168273ffffffffffffffffffffffffffffffffffffffff161415610955576040517f08c379a000000000000000000000000000000000000000000000000000000000815260040161094c90611bc5565b60405180910390fd5b80600160008573ffffffffffffffffffffffffffffffffffffffff1673ffffffffffffffffffffffffffffffffffffffff16815260200190815260200160002060008473ffffffffffffffffffffffffffffffffffffffff1673ffffffffffffffffffffffffffffffffffffffff168152602001908152602001600020819055508173ffffffffffffffffffffffffffffffffffffffff168373ffffffffffffffffffffffffffffffffffffffff167f8c5be1e5ebec7d5bd14f71427d1e84f3dd0314c0f7b2291e5b200ac8c7c3b92583604051610a339190611594565b60405180910390a3505050565b6000610a4c84846107e6565b90507fffffffffffffffffffffffffffffffffffffffffffffffffffffffffffffffff8114610ac65781811015610ab8576040517f08c379a0000000000000000000000000000000000000000000000000000000008152600401610aaf90611c31565b60405180910390fd5b610ac58484848403610875565b5b50505050565b600073ffffffffffffffffffffffffffffffffffffffff168373ffffffffffffffffffffffffffffffffffffffff161415610b3c576040517f08c379a0000000000000000000000000000000000000000000000000000000008152600401610b3390611cc3565b60405180910390fd5b600073ffffffffffffffffffffffffffffffffffffffff168273ffffffffffffffffffffffffffffffffffffffff161415610bac576040517f08c379a0000000000000000000000000000000000000000000000000000000008152600401610ba390611d55565b60405180910390fd5b610bb78383836110dd565b60008060008573ffffffffffffffffffffffffffffffffffffffff1673ffffffffffffffffffffffffffffffffffffffff16815260200190815260200160002054905081811015610c3d576040517f08c379a0000000000000000000000000000000000000000000000000000000008152600401610c3490611de7565b60405180910390fd5b8181036000808673ffffffffffffffffffffffffffffffffffffffff1673ffffffffffffffffffffffffffffffffffffffff16815260200190815260200160002081905550816000808573ffffffffffffffffffffffffffffffffffffffff1673ffffffffffffffffffffffffffffffffffffffff168152602001908152602001600020600082825401925050819055508273ffffffffffffffffffffffffffffffffffffffff168473ffffffffffffffffffffffffffffffffffffffff167fddf252ad1be2c89b69c2b068fc378daa952ba7f163c4a11628f55a4df523b3ef84604051610d2b9190611594565b60405180910390a3610d3e8484846110e2565b50505050565b60007f000000000000000000000000000000000000000000000000000000000000000073ffffffffffffffffffffffffffffffffffffffff163073ffffffffffffffffffffffffffffffffffffffff16148015610dc057507f000000000000000000000000000000000000000000000000000000000000000046145b15610ded577f00000000000000000000000000000000000000000000000000000000000000009050610e5b565b610e587f00000000000000000000000000000000000000000000000000000000000000007f00000000000000000000000000000000000000000000000000000000000000007f00000000000000000000000000000000000000000000000000000000000000006110e7565b90505b90565b600073ffffffffffffffffffffffffffffffffffffffff168273ffffffffffffffffffffffffffffffffffffffff161415610ece576040517f08c379a0000000000000000000000000000000000000000000000000000000008152600401610ec590611e79565b60405180910390fd5b610eda826000836110dd565b60008060008473ffffffffffffffffffffffffffffffffffffffff1673ffffffffffffffffffffffffffffffffffffffff16815260200190815260200160002054905081811015610f60576040517f08c379a0000000000000000000000000000000000000000000000000000000008152600401610f5790611f0b565b60405180910390fd5b8181036000808573ffffffffffffffffffffffffffffffffffffffff1673ffffffffffffffffffffffffffffffffffffffff1681526020019081526020016000208190555081600260008282540392505081905550600073ffffffffffffffffffffffffffffffffffffffff168373ffffffffffffffffffffffffffffffffffffffff167fddf252ad1be2c89b69c2b068fc378daa952ba7f163c4a11628f55a4df523b3ef846040516110139190611594565b60405180910390a3611027836000846110e2565b505050565b600081600001549050919050565b600080600560008473ffffffffffffffffffffffffffffffffffffffff1673ffffffffffffffffffffffffffffffffffffffff16815260200190815260200160002090506110878161102c565b915061109281611121565b50919050565b60006110ab6110a5610d44565b83611137565b9050919050565b60008060006110c38787878761116a565b915091506110d08161124d565b8192505050949350505050565b505050565b505050565b60008383834630604051602001611102959493929190611f2b565b6040516020818303038152906040528051906020012090509392505050565b6001816000016000828254019250508190555050565b6000828260405160200161114c929190611ff6565b60405160208183030381529060405280519060200120905092915050565b6000807f7fffffffffffffffffffffffffffffff5d576e7357a4501ddfe92f46681b20a08360001c11156111a5576000600391509150611244565b6000600187878787604051600081526020016040526040516111ca949392919061202d565b6020604051602081039080840390855afa1580156111ec573d6000803e3d6000fd5b505050602060405103519050600073ffffffffffffffffffffffffffffffffffffffff168173ffffffffffffffffffffffffffffffffffffffff16141561123b57600060019250925050611244565b80600092509250505b94509492505050565b6000600481111561126157611260612072565b5b81600481111561127457611273612072565b5b141561127f576113b8565b6001600481111561129357611292612072565b5b8160048111156112a6576112a5612072565b5b14156112e7576040517f08c379a00000000000000000000000000000000000000000000000000000000081526004016112de906120ed565b60405180910390fd5b600260048111156112fb576112fa612072565b5b81600481111561130e5761130d612072565b5b141561134f576040517f08c379a000000000000000000000000000000000000000000000000000000000815260040161134690612159565b60405180910390fd5b6003600481111561136357611362612072565b5b81600481111561137657611375612072565b5b14156113b7576040517f08c379a00000000000000000000000000000000000000000000000000000000081526004016113ae906121eb565b60405180910390fd5b5b50565b600081519050919050565b600082825260208201905092915050565b60005b838110156113f55780820151818401526020810190506113da565b83811115611404576000848401525b50505050565b6000601f19601f8301169050919050565b6000611426826113bb565b61143081856113c6565b93506114408185602086016113d7565b6114498161140a565b840191505092915050565b6000602082019050818103600083015261146e818461141b565b905092915050565b600080fd5b600073ffffffffffffffffffffffffffffffffffffffff82169050919050565b60006114a68261147b565b9050919050565b6114b68161149b565b81146114c157600080fd5b50565b6000813590506114d3816114ad565b92915050565b6000819050919050565b6114ec816114d9565b81146114f757600080fd5b50565b600081359050611509816114e3565b92915050565b6000806040838503121561152657611525611476565b5b6000611534858286016114c4565b9250506020611545858286016114fa565b9150509250929050565b60008115159050919050565b6115648161154f565b82525050565b600060208201905061157f600083018461155b565b92915050565b61158e816114d9565b82525050565b60006020820190506115a96000830184611585565b92915050565b6000806000606084860312156115c8576115c7611476565b5b60006115d6868287016114c4565b93505060206115e7868287016114c4565b92505060406115f8868287016114fa565b9150509250925092565b600060ff82169050919050565b61161881611602565b82525050565b6000602082019050611633600083018461160f565b92915050565b6000819050919050565b61164c81611639565b82525050565b60006020820190506116676000830184611643565b92915050565b60006020828403121561168357611682611476565b5b6000611691848285016114fa565b91505092915050565b6000602082840312156116b0576116af611476565b5b60006116be848285016114c4565b91505092915050565b6116d081611602565b81146116db57600080fd5b50565b6000813590506116ed816116c7565b92915050565b6116fc81611639565b811461170757600080fd5b50565b600081359050611719816116f3565b92915050565b600080600080600080600060e0888a03121561173e5761173d611476565b5b600061174c8a828b016114c4565b975050602061175d8a828b016114c4565b965050604061176e8a828b016114fa565b955050606061177f8a828b016114fa565b94505060806117908a828b016116de565b93505060a06117a18a828b0161170a565b92505060c06117b28a828b0161170a565b91505092959891949750929550565b600080604083850312156117d8576117d7611476565b5b60006117e6858286016114c4565b92505060206117f7858286016114c4565b9150509250929050565b7f4e487b7100000000000000000000000000000000000000000000000000000000600052602260045260246000fd5b6000600282049050600182168061184857607f821691505b6020821081141561185c5761185b611801565b5b50919050565b7f4e487b7100000000000000000000000000000000000000000000000000000000600052601160045260246000fd5b600061189c826114d9565b91506118a7836114d9565b9250827fffffffffffffffffffffffffffffffffffffffffffffffffffffffffffffffff038211156118dc576118db611862565b5b828201905092915050565b7f45524332303a2064656372656173656420616c6c6f77616e63652062656c6f7760008201527f207a65726f000000000000000000000000000000000000000000000000000000602082015250565b60006119436025836113c6565b915061194e826118e7565b604082019050919050565b6000602082019050818103600083015261197281611936565b9050919050565b7f45524332305065726d69743a206578706972656420646561646c696e65000000600082015250565b60006119af601d836113c6565b91506119ba82611979565b602082019050919050565b600060208201905081810360008301526119de816119a2565b9050919050565b6119ee8161149b565b82525050565b600060c082019050611a096000830189611643565b611a1660208301886119e5565b611a2360408301876119e5565b611a306060830186611585565b611a3d6080830185611585565b611a4a60a0830184611585565b979650505050505050565b7f45524332305065726d69743a20696e76616c6964207369676e61747572650000600082015250565b6000611a8b601e836113c6565b9150611a9682611a55565b602082019050919050565b60006020820190508181036000830152611aba81611a7e565b9050919050565b7f45524332303a20617070726f76652066726f6d20746865207a65726f2061646460008201527f7265737300000000000000000000000000000000000000000000000000000000602082015250565b6000611b1d6024836113c6565b9150611b2882611ac1565b604082019050919050565b60006020820190508181036000830152611b4c81611b10565b9050919050565b7f45524332303a20617070726f766520746f20746865207a65726f20616464726560008201527f7373000000000000000000000000000000000000000000000000000000000000602082015250565b6000611baf6022836113c6565b9150611bba82611b53565b604082019050919050565b60006020820190508181036000830152611bde81611ba2565b9050919050565b7f45524332303a20696e73756666696369656e7420616c6c6f77616e6365000000600082015250565b6000611c1b601d836113c6565b9150611c2682611be5565b602082019050919050565b60006020820190508181036000830152611c4a81611c0e565b9050919050565b7f45524332303a207472616e736665722066726f6d20746865207a65726f20616460008201527f6472657373000000000000000000000000000000000000000000000000000000602082015250565b6000611cad6025836113c6565b9150611cb882611c51565b604082019050919050565b60006020820190508181036000830152611cdc81611ca0565b9050919050565b7f45524332303a207472616e7366657220746f20746865207a65726f206164647260008201527f6573730000000000000000000000000000000000000000000000000000000000602082015250565b6000611d3f6023836113c6565b9150611d4a82611ce3565b604082019050919050565b60006020820190508181036000830152611d6e81611d32565b9050919050565b7f45524332303a207472616e7366657220616d6f756e742065786365656473206260008201527f616c616e63650000000000000000000000000000000000000000000000000000602082015250565b6000611dd16026836113c6565b9150611ddc82611d75565b604082019050919050565b60006020820190508181036000830152611e0081611dc4565b9050919050565b7f45524332303a206275726e2066726f6d20746865207a65726f2061646472657360008201527f7300000000000000000000000000000000000000000000000000000000000000602082015250565b6000611e636021836113c6565b9150611e6e82611e07565b604082019050919050565b60006020820190508181036000830152611e9281611e56565b9050919050565b7f45524332303a206275726e20616d6f756e7420657863656564732062616c616e60008201527f6365000000000000000000000000000000000000000000000000000000000000602082015250565b6000611ef56022836113c6565b9150611f0082611e99565b604082019050919050565b60006020820190508181036000830152611f2481611ee8565b9050919050565b600060a082019050611f406000830188611643565b611f4d6020830187611643565b611f5a6040830186611643565b611f676060830185611585565b611f7460808301846119e5565b9695505050505050565b600081905092915050565b7f1901000000000000000000000000000000000000000000000000000000000000600082015250565b6000611fbf600283611f7e565b9150611fca82611f89565b600282019050919050565b6000819050919050565b611ff0611feb82611639565b611fd5565b82525050565b600061200182611fb2565b915061200d8285611fdf565b60208201915061201d8284611fdf565b6020820191508190509392505050565b60006080820190506120426000830187611643565b61204f602083018661160f565b61205c6040830185611643565b6120696060830184611643565b95945050505050565b7f4e487b7100000000000000000000000000000000000000000000000000000000600052602160045260246000fd5b7f45434453413a20696e76616c6964207369676e61747572650000000000000000600082015250565b60006120d76018836113c6565b91506120e2826120a1565b602082019050919050565b60006020820190508181036000830152612106816120ca565b9050919050565b7f45434453413a20696e76616c6964207369676e6174757265206c656e67746800600082015250565b6000612143601f836113c6565b915061214e8261210d565b602082019050919050565b6000602082019050818103600083015261217281612136565b9050919050565b7f45434453413a20696e76616c6964207369676e6174757265202773272076616c60008201527f7565000000000000000000000000000000000000000000000000000000000000602082015250565b60006121d56022836113c6565b91506121e082612179565b604082019050919050565b60006020820190508181036000830152612204816121c8565b905091905056fea26469706673582212209e24fb2f0b7313b0399ce8052a1576292abe1bb29060998c6b1d278209b7776d64736f6c63430008090033",
  "linkReferences": {},
  "deployedLinkReferences": {}
}