{
  "_format": "hh-sol-artifact-1",
  "contractName": "Token",
  "sourceName": "contracts/ERC20_BASE_PERMIT.sol",
  "abi": [
    {
      "inputs": [
        {
          "internalType": "string",
          "name": "name",
          "type": "string"
        },
        {
          "internalType": "string",
          "name": "symbol",
          "type": "string"
        },
        {
          "internalType": "uint256",
          "name": "max_supply",
          "type": "uint256"
        }
      ],
      "stateMutability": "nonpayable",
      "type": "constructor"
    },
    {
      "anonymous": false,
      "inputs": [
        {
          "indexed": true,
          "internalType": "address",
          "name": "owner",
          "type": "address"
        },
        {
          "indexed": true,
          "internalType": "address",
          "name": "spender",
          "type": "address"
        },
        {
          "indexed": false,
          "internalType": "uint256",
          "name": "value",
          "type": "uint256"
        }
      ],
      "name": "Approval",
      "type": "event"
    },
    {
      "anonymous": false,
      "inputs": [
        {
          "indexed": true,
          "internalType": "address",
          "name": "from",
          "type": "address"
        },
        {
          "indexed": true,
          "internalType": "address",
          "name": "to",
          "type": "address"
        },
        {
          "indexed": false,
          "internalType": "uint256",
          "name": "value",
          "type": "uint256"
        }
      ],
      "name": "Transfer",
      "type": "event"
    },
    {
      "inputs": [],
      "name": "DOMAIN_SEPARATOR",
      "outputs": [
        {
          "internalType": "bytes32",
          "name": "",
          "type": "bytes32"
        }
      ],
      "stateMutability": "view",
      "type": "function"
    },
    {
      "inputs": [
        {
          "internalType": "address",
          "name": "owner",
          "type": "address"
        },
        {
          "internalType": "address",
          "name": "spender",
          "type": "address"
        }
      ],
      "name": "allowance",
      "outputs": [
        {
          "internalType": "uint256",
          "name": "",
          "type": "uint256"
        }
      ],
      "stateMutability": "view",
      "type": "function"
    },
    {
      "inputs": [
        {
          "internalType": "address",
          "name": "spender",
          "type": "address"
        },
        {
          "internalType": "uint256",
          "name": "amount",
          "type": "uint256"
        }
      ],
      "name": "approve",
      "outputs": [
        {
          "internalType": "bool",
          "name": "",
          "type": "bool"
        }
      ],
      "stateMutability": "nonpayable",
      "type": "function"
    },
    {
      "inputs": [
        {
          "internalType": "address",
          "name": "account",
          "type": "address"
        }
      ],
      "name": "balanceOf",
      "outputs": [
        {
          "internalType": "uint256",
          "name": "",
          "type": "uint256"
        }
      ],
      "stateMutability": "view",
      "type": "function"
    },
    {
      "inputs": [
        {
          "internalType": "uint256",
          "name": "amount",
          "type": "uint256"
        }
      ],
      "name": "burn",
      "outputs": [],
      "stateMutability": "nonpayable",
      "type": "function"
    },
    {
      "inputs": [
        {
          "internalType": "address",
          "name": "account",
          "type": "address"
        },
        {
          "internalType": "uint256",
          "name": "amount",
          "type": "uint256"
        }
      ],
      "name": "burnFrom",
      "outputs": [],
      "stateMutability": "nonpayable",
      "type": "function"
    },
    {
      "inputs": [],
      "name": "decimals",
      "outputs": [
        {
          "internalType": "uint8",
          "name": "",
          "type": "uint8"
        }
      ],
      "stateMutability": "view",
      "type": "function"
    },
    {
      "inputs": [
        {
          "internalType": "address",
          "name": "spender",
          "type": "address"
        },
        {
          "internalType": "uint256",
          "name": "subtractedValue",
          "type": "uint256"
        }
      ],
      "name": "decreaseAllowance",
      "outputs": [
        {
          "internalType": "bool",
          "name": "",
          "type": "bool"
        }
      ],
      "stateMutability": "nonpayable",
      "type": "function"
    },
    {
      "inputs": [
        {
          "internalType": "address",
          "name": "spender",
          "type": "address"
        },
        {
          "internalType": "uint256",
          "name": "addedValue",
          "type": "uint256"
        }
      ],
      "name": "increaseAllowance",
      "outputs": [
        {
          "internalType": "bool",
          "name": "",
          "type": "bool"
        }
      ],
      "stateMutability": "nonpayable",
      "type": "function"
    },
    {
      "inputs": [],
      "name": "name",
      "outputs": [
        {
          "internalType": "string",
          "name": "",
          "type": "string"
        }
      ],
      "stateMutability": "view",
      "type": "function"
    },
    {
      "inputs": [
        {
          "internalType": "address",
          "name": "owner",
          "type": "address"
        }
      ],
      "name": "nonces",
      "outputs": [
        {
          "internalType": "uint256",
          "name": "",
          "type": "uint256"
        }
      ],
      "stateMutability": "view",
      "type": "function"
    },
    {
      "inputs": [
        {
          "internalType": "address",
          "name": "owner",
          "type": "address"
        },
        {
          "internalType": "address",
          "name": "spender",
          "type": "address"
        },
        {
          "internalType": "uint256",
          "name": "value",
          "type": "uint256"
        },
        {
          "internalType": "uint256",
          "name": "deadline",
          "type": "uint256"
        },
        {
          "internalType": "uint8",
          "name": "v",
          "type": "uint8"
        },
        {
          "internalType": "bytes32",
          "name": "r",
          "type": "bytes32"
        },
        {
          "internalType": "bytes32",
          "name": "s",
          "type": "bytes32"
        }
      ],
      "name": "permit",
      "outputs": [],
      "stateMutability": "nonpayable",
      "type": "function"
    },
    {
      "inputs": [],
      "name": "symbol",
      "outputs": [
        {
          "internalType": "string",
          "name": "",
          "type": "string"
        }
      ],
      "stateMutability": "view",
      "type": "function"
    },
    {
      "inputs": [],
      "name": "totalSupply",
      "outputs": [
        {
          "internalType": "uint256",
          "name": "",
          "type": "uint256"
        }
      ],
      "stateMutability": "view",
      "type": "function"
    },
    {
      "inputs": [
        {
          "internalType": "address",
          "name": "recipient",
          "type": "address"
        },
        {
          "internalType": "uint256",
          "name": "amount",
          "type": "uint256"
        }
      ],
      "name": "transfer",
      "outputs": [
        {
          "internalType": "bool",
          "name": "",
          "type": "bool"
        }
      ],
      "stateMutability": "nonpayable",
      "type": "function"
    },
    {
      "inputs": [
        {
          "internalType": "address",
          "name": "sender",
          "type": "address"
        },
        {
          "internalType": "address",
          "name": "recipient",
          "type": "address"
        },
        {
          "internalType": "uint256",
          "name": "amount",
          "type": "uint256"
        }
      ],
      "name": "transferFrom",
      "outputs": [
        {
          "internalType": "bool",
          "name": "",
          "type": "bool"
        }
      ],
      "stateMutability": "nonpayable",
      "type": "function"
    }
  ],
  "bytecode": "0x6101406040527f6e71edae12b1b97f4d1f60370fef10105fa2faae0126114a169c64845d6126c9610120908152503480156200003a57600080fd5b5060405162002e5338038062002e53833981810160405281019062000060919062000492565b82806040518060400160405280600181526020017f310000000000000000000000000000000000000000000000000000000000000081525085858160039080519060200190620000b292919062000359565b508060049080519060200190620000cb92919062000359565b50505060008280519060200120905060008280519060200120905060007f8b73c3c69bb8fe3d512ecc4cf759cc79239f7b179b0ffacaa9a75d522b39400f90508260c081815250508160e081815250504660a08181525050620001368184846200019160201b60201c565b60808181525050806101008181525050505050505050620001883362000161620001cd60201b60201c565b600a6200016f919062000738565b836200017c919062000875565b620001d660201b60201c565b50505062000abb565b60008383834630604051602001620001ae95949392919062000574565b6040516020818303038152906040528051906020012090509392505050565b60006012905090565b600073ffffffffffffffffffffffffffffffffffffffff168273ffffffffffffffffffffffffffffffffffffffff16141562000249576040517f08c379a00000000000000000000000000000000000000000000000000000000081526004016200024090620005d1565b60405180910390fd5b6200025d600083836200034f60201b60201c565b806002600082825462000271919062000680565b92505081905550806000808473ffffffffffffffffffffffffffffffffffffffff1673ffffffffffffffffffffffffffffffffffffffff1681526020019081526020016000206000828254620002c8919062000680565b925050819055508173ffffffffffffffffffffffffffffffffffffffff16600073ffffffffffffffffffffffffffffffffffffffff167fddf252ad1be2c89b69c2b068fc378daa952ba7f163c4a11628f55a4df523b3ef836040516200032f9190620005f3565b60405180910390a36200034b600083836200035460201b60201c565b5050565b505050565b505050565b828054620003679062000961565b90600052602060002090601f0160209004810192826200038b5760008555620003d7565b82601f10620003a657805160ff1916838001178555620003d7565b82800160010185558215620003d7579182015b82811115620003d6578251825591602001919060010190620003b9565b5b509050620003e69190620003ea565b5090565b5b8082111562000405576000816000905550600101620003eb565b5090565b6000620004206200041a8462000639565b62000610565b9050828152602081018484840111156200043957600080fd5b620004468482856200092b565b509392505050565b600082601f8301126200046057600080fd5b81516200047284826020860162000409565b91505092915050565b6000815190506200048c8162000aa1565b92915050565b600080600060608486031215620004a857600080fd5b600084015167ffffffffffffffff811115620004c357600080fd5b620004d1868287016200044e565b935050602084015167ffffffffffffffff811115620004ef57600080fd5b620004fd868287016200044e565b925050604062000510868287016200047b565b9150509250925092565b6200052581620008d6565b82525050565b6200053681620008ea565b82525050565b60006200054b601f836200066f565b9150620005588262000a78565b602082019050919050565b6200056e8162000914565b82525050565b600060a0820190506200058b60008301886200052b565b6200059a60208301876200052b565b620005a960408301866200052b565b620005b8606083018562000563565b620005c760808301846200051a565b9695505050505050565b60006020820190508181036000830152620005ec816200053c565b9050919050565b60006020820190506200060a600083018462000563565b92915050565b60006200061c6200062f565b90506200062a828262000997565b919050565b6000604051905090565b600067ffffffffffffffff82111562000657576200065662000a2b565b5b620006628262000a5a565b9050602081019050919050565b600082825260208201905092915050565b60006200068d8262000914565b91506200069a8362000914565b9250827fffffffffffffffffffffffffffffffffffffffffffffffffffffffffffffffff03821115620006d257620006d1620009cd565b5b828201905092915050565b6000808291508390505b60018511156200072f57808604811115620007075762000706620009cd565b5b6001851615620007175780820291505b8081029050620007278562000a6b565b9450620006e7565b94509492505050565b6000620007458262000914565b915062000752836200091e565b9250620007817fffffffffffffffffffffffffffffffffffffffffffffffffffffffffffffffff848462000789565b905092915050565b6000826200079b57600190506200086e565b81620007ab57600090506200086e565b8160018114620007c45760028114620007cf5762000805565b60019150506200086e565b60ff841115620007e457620007e3620009cd565b5b8360020a915084821115620007fe57620007fd620009cd565b5b506200086e565b5060208310610133831016604e8410600b84101617156200083f5782820a905083811115620008395762000838620009cd565b5b6200086e565b6200084e8484846001620006dd565b92509050818404811115620008685762000867620009cd565b5b81810290505b9392505050565b6000620008828262000914565b91506200088f8362000914565b9250817fffffffffffffffffffffffffffffffffffffffffffffffffffffffffffffffff0483118215151615620008cb57620008ca620009cd565b5b828202905092915050565b6000620008e382620008f4565b9050919050565b6000819050919050565b600073ffffffffffffffffffffffffffffffffffffffff82169050919050565b6000819050919050565b600060ff82169050919050565b60005b838110156200094b5780820151818401526020810190506200092e565b838111156200095b576000848401525b50505050565b600060028204905060018216806200097a57607f821691505b60208210811415620009915762000990620009fc565b5b50919050565b620009a28262000a5a565b810181811067ffffffffffffffff82111715620009c457620009c362000a2b565b5b80604052505050565b7f4e487b7100000000000000000000000000000000000000000000000000000000600052601160045260246000fd5b7f4e487b7100000000000000000000000000000000000000000000000000000000600052602260045260246000fd5b7f4e487b7100000000000000000000000000000000000000000000000000000000600052604160045260246000fd5b6000601f19601f8301169050919050565b60008160011c9050919050565b7f45524332303a206d696e7420746f20746865207a65726f206164647265737300600082015250565b62000aac8162000914565b811462000ab857600080fd5b50565b60805160a05160c05160e051610100516101205161234862000b0b60003960006108ee01526000610f1b01526000610f5d01526000610f3c01526000610ec801526000610ef001526123486000f3fe608060405234801561001057600080fd5b50600436106101005760003560e01c806370a0823111610097578063a457c2d711610066578063a457c2d7146102c3578063a9059cbb146102f3578063d505accf14610323578063dd62ed3e1461033f57610100565b806370a082311461022957806379cc6790146102595780637ecebe001461027557806395d89b41146102a557610100565b8063313ce567116100d3578063313ce567146101a15780633644e515146101bf57806339509351146101dd57806342966c681461020d57610100565b806306fdde0314610105578063095ea7b31461012357806318160ddd1461015357806323b872dd14610171575b600080fd5b61010d61036f565b60405161011a9190611a38565b60405180910390f35b61013d600480360381019061013891906115a2565b610401565b60405161014a9190611909565b60405180910390f35b61015b61041f565b6040516101689190611c3a565b60405180910390f35b61018b600480360381019061018691906114b5565b610429565b6040516101989190611909565b60405180910390f35b6101a9610521565b6040516101b69190611c55565b60405180910390f35b6101c761052a565b6040516101d49190611924565b60405180910390f35b6101f760048036038101906101f291906115a2565b610539565b6040516102049190611909565b60405180910390f35b610227600480360381019061022291906115de565b6105e5565b005b610243600480360381019061023e9190611450565b6105f9565b6040516102509190611c3a565b60405180910390f35b610273600480360381019061026e91906115a2565b610641565b005b61028f600480360381019061028a9190611450565b6106bc565b60405161029c9190611c3a565b60405180910390f35b6102ad61070c565b6040516102ba9190611a38565b60405180910390f35b6102dd60048036038101906102d891906115a2565b61079e565b6040516102ea9190611909565b60405180910390f35b61030d600480360381019061030891906115a2565b610889565b60405161031a9190611909565b60405180910390f35b61033d60048036038101906103389190611504565b6108a7565b005b61035960048036038101906103549190611479565b6109e9565b6040516103669190611c3a565b60405180910390f35b60606003805461037e90611db3565b80601f01602080910402602001604051908101604052809291908181526020018280546103aa90611db3565b80156103f75780601f106103cc576101008083540402835291602001916103f7565b820191906000526020600020905b8154815290600101906020018083116103da57829003601f168201915b5050505050905090565b600061041561040e610a70565b8484610a78565b6001905092915050565b6000600254905090565b6000610436848484610c43565b6000600160008673ffffffffffffffffffffffffffffffffffffffff1673ffffffffffffffffffffffffffffffffffffffff1681526020019081526020016000206000610481610a70565b73ffffffffffffffffffffffffffffffffffffffff1673ffffffffffffffffffffffffffffffffffffffff16815260200190815260200160002054905082811015610501576040517f08c379a00000000000000000000000000000000000000000000000000000000081526004016104f890611b7a565b60405180910390fd5b6105158561050d610a70565b858403610a78565b60019150509392505050565b60006012905090565b6000610534610ec4565b905090565b60006105db610546610a70565b848460016000610554610a70565b73ffffffffffffffffffffffffffffffffffffffff1673ffffffffffffffffffffffffffffffffffffffff16815260200190815260200160002060008873ffffffffffffffffffffffffffffffffffffffff1673ffffffffffffffffffffffffffffffffffffffff168152602001908152602001600020546105d69190611c97565b610a78565b6001905092915050565b6105f66105f0610a70565b82610f87565b50565b60008060008373ffffffffffffffffffffffffffffffffffffffff1673ffffffffffffffffffffffffffffffffffffffff168152602001908152602001600020549050919050565b60006106548361064f610a70565b6109e9565b905081811015610699576040517f08c379a000000000000000000000000000000000000000000000000000000000815260040161069090611b9a565b60405180910390fd5b6106ad836106a5610a70565b848403610a78565b6106b78383610f87565b505050565b6000610705600560008473ffffffffffffffffffffffffffffffffffffffff1673ffffffffffffffffffffffffffffffffffffffff16815260200190815260200160002061115e565b9050919050565b60606004805461071b90611db3565b80601f016020809104026020016040519081016040528092919081815260200182805461074790611db3565b80156107945780601f1061076957610100808354040283529160200191610794565b820191906000526020600020905b81548152906001019060200180831161077757829003601f168201915b5050505050905090565b600080600160006107ad610a70565b73ffffffffffffffffffffffffffffffffffffffff1673ffffffffffffffffffffffffffffffffffffffff16815260200190815260200160002060008573ffffffffffffffffffffffffffffffffffffffff1673ffffffffffffffffffffffffffffffffffffffff1681526020019081526020016000205490508281101561086a576040517f08c379a000000000000000000000000000000000000000000000000000000000815260040161086190611c1a565b60405180910390fd5b61087e610875610a70565b85858403610a78565b600191505092915050565b600061089d610896610a70565b8484610c43565b6001905092915050565b834211156108ea576040517f08c379a00000000000000000000000000000000000000000000000000000000081526004016108e190611ada565b60405180910390fd5b60007f00000000000000000000000000000000000000000000000000000000000000008888886109198c61116c565b8960405160200161092f9695949392919061193f565b6040516020818303038152906040528051906020012090506000610952826111ca565b90506000610962828787876111e4565b90508973ffffffffffffffffffffffffffffffffffffffff168173ffffffffffffffffffffffffffffffffffffffff16146109d2576040517f08c379a00000000000000000000000000000000000000000000000000000000081526004016109c990611b5a565b60405180910390fd5b6109dd8a8a8a610a78565b50505050505050505050565b6000600160008473ffffffffffffffffffffffffffffffffffffffff1673ffffffffffffffffffffffffffffffffffffffff16815260200190815260200160002060008373ffffffffffffffffffffffffffffffffffffffff1673ffffffffffffffffffffffffffffffffffffffff16815260200190815260200160002054905092915050565b600033905090565b600073ffffffffffffffffffffffffffffffffffffffff168373ffffffffffffffffffffffffffffffffffffffff161415610ae8576040517f08c379a0000000000000000000000000000000000000000000000000000000008152600401610adf90611bfa565b60405180910390fd5b600073ffffffffffffffffffffffffffffffffffffffff168273ffffffffffffffffffffffffffffffffffffffff161415610b58576040517f08c379a0000000000000000000000000000000000000000000000000000000008152600401610b4f90611aba565b60405180910390fd5b80600160008573ffffffffffffffffffffffffffffffffffffffff1673ffffffffffffffffffffffffffffffffffffffff16815260200190815260200160002060008473ffffffffffffffffffffffffffffffffffffffff1673ffffffffffffffffffffffffffffffffffffffff168152602001908152602001600020819055508173ffffffffffffffffffffffffffffffffffffffff168373ffffffffffffffffffffffffffffffffffffffff167f8c5be1e5ebec7d5bd14f71427d1e84f3dd0314c0f7b2291e5b200ac8c7c3b92583604051610c369190611c3a565b60405180910390a3505050565b600073ffffffffffffffffffffffffffffffffffffffff168373ffffffffffffffffffffffffffffffffffffffff161415610cb3576040517f08c379a0000000000000000000000000000000000000000000000000000000008152600401610caa90611bda565b60405180910390fd5b600073ffffffffffffffffffffffffffffffffffffffff168273ffffffffffffffffffffffffffffffffffffffff161415610d23576040517f08c379a0000000000000000000000000000000000000000000000000000000008152600401610d1a90611a7a565b60405180910390fd5b610d2e83838361136f565b60008060008573ffffffffffffffffffffffffffffffffffffffff1673ffffffffffffffffffffffffffffffffffffffff16815260200190815260200160002054905081811015610db4576040517f08c379a0000000000000000000000000000000000000000000000000000000008152600401610dab90611afa565b60405180910390fd5b8181036000808673ffffffffffffffffffffffffffffffffffffffff1673ffffffffffffffffffffffffffffffffffffffff16815260200190815260200160002081905550816000808573ffffffffffffffffffffffffffffffffffffffff1673ffffffffffffffffffffffffffffffffffffffff1681526020019081526020016000206000828254610e479190611c97565b925050819055508273ffffffffffffffffffffffffffffffffffffffff168473ffffffffffffffffffffffffffffffffffffffff167fddf252ad1be2c89b69c2b068fc378daa952ba7f163c4a11628f55a4df523b3ef84604051610eab9190611c3a565b60405180910390a3610ebe848484611374565b50505050565b60007f0000000000000000000000000000000000000000000000000000000000000000461415610f16577f00000000000000000000000000000000000000000000000000000000000000009050610f84565b610f817f00000000000000000000000000000000000000000000000000000000000000007f00000000000000000000000000000000000000000000000000000000000000007f0000000000000000000000000000000000000000000000000000000000000000611379565b90505b90565b600073ffffffffffffffffffffffffffffffffffffffff168273ffffffffffffffffffffffffffffffffffffffff161415610ff7576040517f08c379a0000000000000000000000000000000000000000000000000000000008152600401610fee90611bba565b60405180910390fd5b6110038260008361136f565b60008060008473ffffffffffffffffffffffffffffffffffffffff1673ffffffffffffffffffffffffffffffffffffffff16815260200190815260200160002054905081811015611089576040517f08c379a000000000000000000000000000000000000000000000000000000000815260040161108090611a9a565b60405180910390fd5b8181036000808573ffffffffffffffffffffffffffffffffffffffff1673ffffffffffffffffffffffffffffffffffffffff1681526020019081526020016000208190555081600260008282546110e09190611ced565b92505081905550600073ffffffffffffffffffffffffffffffffffffffff168373ffffffffffffffffffffffffffffffffffffffff167fddf252ad1be2c89b69c2b068fc378daa952ba7f163c4a11628f55a4df523b3ef846040516111459190611c3a565b60405180910390a361115983600084611374565b505050565b600081600001549050919050565b600080600560008473ffffffffffffffffffffffffffffffffffffffff1673ffffffffffffffffffffffffffffffffffffffff16815260200190815260200160002090506111b98161115e565b91506111c4816113b3565b50919050565b60006111dd6111d7610ec4565b836113c9565b9050919050565b60007f7fffffffffffffffffffffffffffffff5d576e7357a4501ddfe92f46681b20a08260001c111561124c576040517f08c379a000000000000000000000000000000000000000000000000000000000815260040161124390611b1a565b60405180910390fd5b601b8460ff1614806112615750601c8460ff16145b6112a0576040517f08c379a000000000000000000000000000000000000000000000000000000000815260040161129790611b3a565b60405180910390fd5b6000600186868686604051600081526020016040526040516112c594939291906119f3565b6020604051602081039080840390855afa1580156112e7573d6000803e3d6000fd5b505050602060405103519050600073ffffffffffffffffffffffffffffffffffffffff168173ffffffffffffffffffffffffffffffffffffffff161415611363576040517f08c379a000000000000000000000000000000000000000000000000000000000815260040161135a90611a5a565b60405180910390fd5b80915050949350505050565b505050565b505050565b600083838346306040516020016113949594939291906119a0565b6040516020818303038152906040528051906020012090509392505050565b6001816000016000828254019250508190555050565b600082826040516020016113de9291906118d2565b60405160208183030381529060405280519060200120905092915050565b60008135905061140b816122b6565b92915050565b600081359050611420816122cd565b92915050565b600081359050611435816122e4565b92915050565b60008135905061144a816122fb565b92915050565b60006020828403121561146257600080fd5b6000611470848285016113fc565b91505092915050565b6000806040838503121561148c57600080fd5b600061149a858286016113fc565b92505060206114ab858286016113fc565b9150509250929050565b6000806000606084860312156114ca57600080fd5b60006114d8868287016113fc565b93505060206114e9868287016113fc565b92505060406114fa86828701611426565b9150509250925092565b600080600080600080600060e0888a03121561151f57600080fd5b600061152d8a828b016113fc565b975050602061153e8a828b016113fc565b965050604061154f8a828b01611426565b95505060606115608a828b01611426565b94505060806115718a828b0161143b565b93505060a06115828a828b01611411565b92505060c06115938a828b01611411565b91505092959891949750929550565b600080604083850312156115b557600080fd5b60006115c3858286016113fc565b92505060206115d485828601611426565b9150509250929050565b6000602082840312156115f057600080fd5b60006115fe84828501611426565b91505092915050565b61161081611d21565b82525050565b61161f81611d33565b82525050565b61162e81611d3f565b82525050565b61164561164082611d3f565b611de5565b82525050565b600061165682611c70565b6116608185611c7b565b9350611670818560208601611d80565b61167981611e4d565b840191505092915050565b6000611691601883611c7b565b915061169c82611e5e565b602082019050919050565b60006116b4602383611c7b565b91506116bf82611e87565b604082019050919050565b60006116d7602283611c7b565b91506116e282611ed6565b604082019050919050565b60006116fa602283611c7b565b915061170582611f25565b604082019050919050565b600061171d600283611c8c565b915061172882611f74565b600282019050919050565b6000611740601d83611c7b565b915061174b82611f9d565b602082019050919050565b6000611763602683611c7b565b915061176e82611fc6565b604082019050919050565b6000611786602283611c7b565b915061179182612015565b604082019050919050565b60006117a9602283611c7b565b91506117b482612064565b604082019050919050565b60006117cc601e83611c7b565b91506117d7826120b3565b602082019050919050565b60006117ef602883611c7b565b91506117fa826120dc565b604082019050919050565b6000611812602483611c7b565b915061181d8261212b565b604082019050919050565b6000611835602183611c7b565b91506118408261217a565b604082019050919050565b6000611858602583611c7b565b9150611863826121c9565b604082019050919050565b600061187b602483611c7b565b915061188682612218565b604082019050919050565b600061189e602583611c7b565b91506118a982612267565b604082019050919050565b6118bd81611d69565b82525050565b6118cc81611d73565b82525050565b60006118dd82611710565b91506118e98285611634565b6020820191506118f98284611634565b6020820191508190509392505050565b600060208201905061191e6000830184611616565b92915050565b60006020820190506119396000830184611625565b92915050565b600060c0820190506119546000830189611625565b6119616020830188611607565b61196e6040830187611607565b61197b60608301866118b4565b61198860808301856118b4565b61199560a08301846118b4565b979650505050505050565b600060a0820190506119b56000830188611625565b6119c26020830187611625565b6119cf6040830186611625565b6119dc60608301856118b4565b6119e96080830184611607565b9695505050505050565b6000608082019050611a086000830187611625565b611a1560208301866118c3565b611a226040830185611625565b611a2f6060830184611625565b95945050505050565b60006020820190508181036000830152611a52818461164b565b905092915050565b60006020820190508181036000830152611a7381611684565b9050919050565b60006020820190508181036000830152611a93816116a7565b9050919050565b60006020820190508181036000830152611ab3816116ca565b9050919050565b60006020820190508181036000830152611ad3816116ed565b9050919050565b60006020820190508181036000830152611af381611733565b9050919050565b60006020820190508181036000830152611b1381611756565b9050919050565b60006020820190508181036000830152611b3381611779565b9050919050565b60006020820190508181036000830152611b538161179c565b9050919050565b60006020820190508181036000830152611b73816117bf565b9050919050565b60006020820190508181036000830152611b93816117e2565b9050919050565b60006020820190508181036000830152611bb381611805565b9050919050565b60006020820190508181036000830152611bd381611828565b9050919050565b60006020820190508181036000830152611bf38161184b565b9050919050565b60006020820190508181036000830152611c138161186e565b9050919050565b60006020820190508181036000830152611c3381611891565b9050919050565b6000602082019050611c4f60008301846118b4565b92915050565b6000602082019050611c6a60008301846118c3565b92915050565b600081519050919050565b600082825260208201905092915050565b600081905092915050565b6000611ca282611d69565b9150611cad83611d69565b9250827fffffffffffffffffffffffffffffffffffffffffffffffffffffffffffffffff03821115611ce257611ce1611def565b5b828201905092915050565b6000611cf882611d69565b9150611d0383611d69565b925082821015611d1657611d15611def565b5b828203905092915050565b6000611d2c82611d49565b9050919050565b60008115159050919050565b6000819050919050565b600073ffffffffffffffffffffffffffffffffffffffff82169050919050565b6000819050919050565b600060ff82169050919050565b60005b83811015611d9e578082015181840152602081019050611d83565b83811115611dad576000848401525b50505050565b60006002820490506001821680611dcb57607f821691505b60208210811415611ddf57611dde611e1e565b5b50919050565b6000819050919050565b7f4e487b7100000000000000000000000000000000000000000000000000000000600052601160045260246000fd5b7f4e487b7100000000000000000000000000000000000000000000000000000000600052602260045260246000fd5b6000601f19601f8301169050919050565b7f45434453413a20696e76616c6964207369676e61747572650000000000000000600082015250565b7f45524332303a207472616e7366657220746f20746865207a65726f206164647260008201527f6573730000000000000000000000000000000000000000000000000000000000602082015250565b7f45524332303a206275726e20616d6f756e7420657863656564732062616c616e60008201527f6365000000000000000000000000000000000000000000000000000000000000602082015250565b7f45524332303a20617070726f766520746f20746865207a65726f20616464726560008201527f7373000000000000000000000000000000000000000000000000000000000000602082015250565b7f1901000000000000000000000000000000000000000000000000000000000000600082015250565b7f45524332305065726d69743a206578706972656420646561646c696e65000000600082015250565b7f45524332303a207472616e7366657220616d6f756e742065786365656473206260008201527f616c616e63650000000000000000000000000000000000000000000000000000602082015250565b7f45434453413a20696e76616c6964207369676e6174757265202773272076616c60008201527f7565000000000000000000000000000000000000000000000000000000000000602082015250565b7f45434453413a20696e76616c6964207369676e6174757265202776272076616c60008201527f7565000000000000000000000000000000000000000000000000000000000000602082015250565b7f45524332305065726d69743a20696e76616c6964207369676e61747572650000600082015250565b7f45524332303a207472616e7366657220616d6f756e742065786365656473206160008201527f6c6c6f77616e6365000000000000000000000000000000000000000000000000602082015250565b7f45524332303a206275726e20616d6f756e74206578636565647320616c6c6f7760008201527f616e636500000000000000000000000000000000000000000000000000000000602082015250565b7f45524332303a206275726e2066726f6d20746865207a65726f2061646472657360008201527f7300000000000000000000000000000000000000000000000000000000000000602082015250565b7f45524332303a207472616e736665722066726f6d20746865207a65726f20616460008201527f6472657373000000000000000000000000000000000000000000000000000000602082015250565b7f45524332303a20617070726f76652066726f6d20746865207a65726f2061646460008201527f7265737300000000000000000000000000000000000000000000000000000000602082015250565b7f45524332303a2064656372656173656420616c6c6f77616e63652062656c6f7760008201527f207a65726f000000000000000000000000000000000000000000000000000000602082015250565b6122bf81611d21565b81146122ca57600080fd5b50565b6122d681611d3f565b81146122e157600080fd5b50565b6122ed81611d69565b81146122f857600080fd5b50565b61230481611d73565b811461230f57600080fd5b5056fea2646970667358221220af7dc69aa2008d0ed0e2037dc169af2c10b8cf3f843185096e0393e90aba8c0964736f6c63430008020033",
  "linkReferences": {},
  "deployedLinkReferences": {}
}