{
  "_format": "hh-sol-artifact-1",
  "contractName": "Collection",
  "sourceName": "contracts/ERC721_BASE.sol",
  "abi": [
    {
      "inputs": [
        {
          "internalType": "string",
          "name": "name_",
          "type": "string"
        },
        {
          "internalType": "string",
          "name": "symbol_",
          "type": "string"
        },
        {
          "internalType": "uint96",
          "name": "royaltyValue",
          "type": "uint96"
        }
      ],
      "stateMutability": "nonpayable",
      "type": "constructor"
    },
    {
      "anonymous": false,
      "inputs": [
        {
          "indexed": true,
          "internalType": "address",
          "name": "owner",
          "type": "address"
        },
        {
          "indexed": true,
          "internalType": "address",
          "name": "approved",
          "type": "address"
        },
        {
          "indexed": true,
          "internalType": "uint256",
          "name": "tokenId",
          "type": "uint256"
        }
      ],
      "name": "Approval",
      "type": "event"
    },
    {
      "anonymous": false,
      "inputs": [
        {
          "indexed": true,
          "internalType": "address",
          "name": "owner",
          "type": "address"
        },
        {
          "indexed": true,
          "internalType": "address",
          "name": "operator",
          "type": "address"
        },
        {
          "indexed": false,
          "internalType": "bool",
          "name": "approved",
          "type": "bool"
        }
      ],
      "name": "ApprovalForAll",
      "type": "event"
    },
    {
      "anonymous": false,
      "inputs": [
        {
          "indexed": true,
          "internalType": "address",
          "name": "previousOwner",
          "type": "address"
        },
        {
          "indexed": true,
          "internalType": "address",
          "name": "newOwner",
          "type": "address"
        }
      ],
      "name": "OwnershipTransferred",
      "type": "event"
    },
    {
      "anonymous": false,
      "inputs": [
        {
          "indexed": true,
          "internalType": "address",
          "name": "from",
          "type": "address"
        },
        {
          "indexed": true,
          "internalType": "address",
          "name": "to",
          "type": "address"
        },
        {
          "indexed": true,
          "internalType": "uint256",
          "name": "tokenId",
          "type": "uint256"
        }
      ],
      "name": "Transfer",
      "type": "event"
    },
    {
      "inputs": [
        {
          "internalType": "address",
          "name": "to",
          "type": "address"
        },
        {
          "internalType": "uint256",
          "name": "tokenId",
          "type": "uint256"
        }
      ],
      "name": "approve",
      "outputs": [],
      "stateMutability": "nonpayable",
      "type": "function"
    },
    {
      "inputs": [
        {
          "internalType": "address",
          "name": "owner",
          "type": "address"
        }
      ],
      "name": "balanceOf",
      "outputs": [
        {
          "internalType": "uint256",
          "name": "",
          "type": "uint256"
        }
      ],
      "stateMutability": "view",
      "type": "function"
    },
    {
      "inputs": [
        {
          "internalType": "uint256",
          "name": "tokenId",
          "type": "uint256"
        }
      ],
      "name": "getApproved",
      "outputs": [
        {
          "internalType": "address",
          "name": "",
          "type": "address"
        }
      ],
      "stateMutability": "view",
      "type": "function"
    },
    {
      "inputs": [
        {
          "internalType": "address",
          "name": "owner",
          "type": "address"
        },
        {
          "internalType": "address",
          "name": "operator",
          "type": "address"
        }
      ],
      "name": "isApprovedForAll",
      "outputs": [
        {
          "internalType": "bool",
          "name": "",
          "type": "bool"
        }
      ],
      "stateMutability": "view",
      "type": "function"
    },
    {
      "inputs": [
        {
          "components": [
            {
              "internalType": "address",
              "name": "to",
              "type": "address"
            },
            {
              "internalType": "string",
              "name": "tokenURI",
              "type": "string"
            }
          ],
          "internalType": "struct Collection.ItemParam[]",
          "name": "items",
          "type": "tuple[]"
        }
      ],
      "name": "multiSafeMint",
      "outputs": [],
      "stateMutability": "nonpayable",
      "type": "function"
    },
    {
      "inputs": [],
      "name": "name",
      "outputs": [
        {
          "internalType": "string",
          "name": "",
          "type": "string"
        }
      ],
      "stateMutability": "view",
      "type": "function"
    },
    {
      "inputs": [],
      "name": "owner",
      "outputs": [
        {
          "internalType": "address",
          "name": "",
          "type": "address"
        }
      ],
      "stateMutability": "view",
      "type": "function"
    },
    {
      "inputs": [
        {
          "internalType": "uint256",
          "name": "tokenId",
          "type": "uint256"
        }
      ],
      "name": "ownerOf",
      "outputs": [
        {
          "internalType": "address",
          "name": "",
          "type": "address"
        }
      ],
      "stateMutability": "view",
      "type": "function"
    },
    {
      "inputs": [],
      "name": "renounceOwnership",
      "outputs": [],
      "stateMutability": "nonpayable",
      "type": "function"
    },
    {
      "inputs": [
        {
          "internalType": "uint256",
          "name": "_tokenId",
          "type": "uint256"
        },
        {
          "internalType": "uint256",
          "name": "_salePrice",
          "type": "uint256"
        }
      ],
      "name": "royaltyInfo",
      "outputs": [
        {
          "internalType": "address",
          "name": "",
          "type": "address"
        },
        {
          "internalType": "uint256",
          "name": "",
          "type": "uint256"
        }
      ],
      "stateMutability": "view",
      "type": "function"
    },
    {
      "inputs": [
        {
          "internalType": "address",
          "name": "to",
          "type": "address"
        },
        {
          "internalType": "string",
          "name": "uri",
          "type": "string"
        }
      ],
      "name": "safeMint",
      "outputs": [],
      "stateMutability": "nonpayable",
      "type": "function"
    },
    {
      "inputs": [
        {
          "internalType": "address",
          "name": "from",
          "type": "address"
        },
        {
          "internalType": "address",
          "name": "to",
          "type": "address"
        },
        {
          "internalType": "uint256",
          "name": "tokenId",
          "type": "uint256"
        }
      ],
      "name": "safeTransferFrom",
      "outputs": [],
      "stateMutability": "nonpayable",
      "type": "function"
    },
    {
      "inputs": [
        {
          "internalType": "address",
          "name": "from",
          "type": "address"
        },
        {
          "internalType": "address",
          "name": "to",
          "type": "address"
        },
        {
          "internalType": "uint256",
          "name": "tokenId",
          "type": "uint256"
        },
        {
          "internalType": "bytes",
          "name": "data",
          "type": "bytes"
        }
      ],
      "name": "safeTransferFrom",
      "outputs": [],
      "stateMutability": "nonpayable",
      "type": "function"
    },
    {
      "inputs": [
        {
          "internalType": "address",
          "name": "operator",
          "type": "address"
        },
        {
          "internalType": "bool",
          "name": "approved",
          "type": "bool"
        }
      ],
      "name": "setApprovalForAll",
      "outputs": [],
      "stateMutability": "nonpayable",
      "type": "function"
    },
    {
      "inputs": [
        {
          "internalType": "bytes4",
          "name": "interfaceId",
          "type": "bytes4"
        }
      ],
      "name": "supportsInterface",
      "outputs": [
        {
          "internalType": "bool",
          "name": "",
          "type": "bool"
        }
      ],
      "stateMutability": "view",
      "type": "function"
    },
    {
      "inputs": [],
      "name": "symbol",
      "outputs": [
        {
          "internalType": "string",
          "name": "",
          "type": "string"
        }
      ],
      "stateMutability": "view",
      "type": "function"
    },
    {
      "inputs": [
        {
          "internalType": "uint256",
          "name": "index",
          "type": "uint256"
        }
      ],
      "name": "tokenByIndex",
      "outputs": [
        {
          "internalType": "uint256",
          "name": "",
          "type": "uint256"
        }
      ],
      "stateMutability": "view",
      "type": "function"
    },
    {
      "inputs": [
        {
          "internalType": "address",
          "name": "owner",
          "type": "address"
        },
        {
          "internalType": "uint256",
          "name": "index",
          "type": "uint256"
        }
      ],
      "name": "tokenOfOwnerByIndex",
      "outputs": [
        {
          "internalType": "uint256",
          "name": "",
          "type": "uint256"
        }
      ],
      "stateMutability": "view",
      "type": "function"
    },
    {
      "inputs": [
        {
          "internalType": "uint256",
          "name": "tokenId",
          "type": "uint256"
        }
      ],
      "name": "tokenURI",
      "outputs": [
        {
          "internalType": "string",
          "name": "",
          "type": "string"
        }
      ],
      "stateMutability": "view",
      "type": "function"
    },
    {
      "inputs": [],
      "name": "totalSupply",
      "outputs": [
        {
          "internalType": "uint256",
          "name": "",
          "type": "uint256"
        }
      ],
      "stateMutability": "view",
      "type": "function"
    },
    {
      "inputs": [
        {
          "internalType": "address",
          "name": "from",
          "type": "address"
        },
        {
          "internalType": "address",
          "name": "to",
          "type": "address"
        },
        {
          "internalType": "uint256",
          "name": "tokenId",
          "type": "uint256"
        }
      ],
      "name": "transferFrom",
      "outputs": [],
      "stateMutability": "nonpayable",
      "type": "function"
    },
    {
      "inputs": [
        {
          "internalType": "address",
          "name": "newOwner",
          "type": "address"
        }
      ],
      "name": "transferOwnership",
      "outputs": [],
      "stateMutability": "nonpayable",
      "type": "function"
    }
  ],
  "bytecode": "0x60806040523480156200001157600080fd5b506040516200455c3803806200455c8339818101604052810190620000379190620005c8565b828281600290805190602001906200005192919062000332565b5080600390805190602001906200006a92919062000332565b5050506200008d62000081620000b760201b60201c565b620000bf60201b60201c565b620000ae620000a1620000b760201b60201c565b826200018560201b60201c565b505050620007e2565b600033905090565b6000600d60009054906101000a900473ffffffffffffffffffffffffffffffffffffffff16905081600d60006101000a81548173ffffffffffffffffffffffffffffffffffffffff021916908373ffffffffffffffffffffffffffffffffffffffff1602179055508173ffffffffffffffffffffffffffffffffffffffff168173ffffffffffffffffffffffffffffffffffffffff167f8be0079c531659141344cd1fd0a4f28419497f9722a3daafe3b4186f6b6457e060405160405180910390a35050565b620001956200032860201b60201c565b6bffffffffffffffffffffffff16816bffffffffffffffffffffffff161115620001f6576040517f08c379a0000000000000000000000000000000000000000000000000000000008152600401620001ed90620006e9565b60405180910390fd5b600073ffffffffffffffffffffffffffffffffffffffff168273ffffffffffffffffffffffffffffffffffffffff16141562000269576040517f08c379a000000000000000000000000000000000000000000000000000000000815260040162000260906200075b565b60405180910390fd5b60405180604001604052808373ffffffffffffffffffffffffffffffffffffffff168152602001826bffffffffffffffffffffffff168152506000808201518160000160006101000a81548173ffffffffffffffffffffffffffffffffffffffff021916908373ffffffffffffffffffffffffffffffffffffffff16021790555060208201518160000160146101000a8154816bffffffffffffffffffffffff02191690836bffffffffffffffffffffffff1602179055509050505050565b6000612710905090565b8280546200034090620007ac565b90600052602060002090601f016020900481019282620003645760008555620003b0565b82601f106200037f57805160ff1916838001178555620003b0565b82800160010185558215620003b0579182015b82811115620003af57825182559160200191906001019062000392565b5b509050620003bf9190620003c3565b5090565b5b80821115620003de576000816000905550600101620003c4565b5090565b6000604051905090565b600080fd5b600080fd5b600080fd5b600080fd5b6000601f19601f8301169050919050565b7f4e487b7100000000000000000000000000000000000000000000000000000000600052604160045260246000fd5b6200044b8262000400565b810181811067ffffffffffffffff821117156200046d576200046c62000411565b5b80604052505050565b600062000482620003e2565b905062000490828262000440565b919050565b600067ffffffffffffffff821115620004b357620004b262000411565b5b620004be8262000400565b9050602081019050919050565b60005b83811015620004eb578082015181840152602081019050620004ce565b83811115620004fb576000848401525b50505050565b600062000518620005128462000495565b62000476565b905082815260208101848484011115620005375762000536620003fb565b5b62000544848285620004cb565b509392505050565b600082601f830112620005645762000563620003f6565b5b81516200057684826020860162000501565b91505092915050565b60006bffffffffffffffffffffffff82169050919050565b620005a2816200057f565b8114620005ae57600080fd5b50565b600081519050620005c28162000597565b92915050565b600080600060608486031215620005e457620005e3620003ec565b5b600084015167ffffffffffffffff811115620006055762000604620003f1565b5b62000613868287016200054c565b935050602084015167ffffffffffffffff811115620006375762000636620003f1565b5b62000645868287016200054c565b92505060406200065886828701620005b1565b9150509250925092565b600082825260208201905092915050565b7f455243323938313a20726f79616c7479206665652077696c6c2065786365656460008201527f2073616c65507269636500000000000000000000000000000000000000000000602082015250565b6000620006d1602a8362000662565b9150620006de8262000673565b604082019050919050565b600060208201905081810360008301526200070481620006c2565b9050919050565b7f455243323938313a20696e76616c696420726563656976657200000000000000600082015250565b60006200074360198362000662565b915062000750826200070b565b602082019050919050565b60006020820190508181036000830152620007768162000734565b9050919050565b7f4e487b7100000000000000000000000000000000000000000000000000000000600052602260045260246000fd5b60006002820490506001821680620007c557607f821691505b60208210811415620007dc57620007db6200077d565b5b50919050565b613d6a80620007f26000396000f3fe608060405234801561001057600080fd5b50600436106101425760003560e01c80636352211e116100b8578063a22cb4651161007c578063a22cb4651461038a578063b88d4fde146103a6578063c87b56dd146103c2578063d204c45e146103f2578063e985e9c51461040e578063f2fde38b1461043e57610142565b80636352211e146102e457806370a0823114610314578063715018a6146103445780638da5cb5b1461034e57806395d89b411461036c57610142565b80631c02aeaf1161010a5780631c02aeaf146101ff57806323b872dd1461021b5780632a55205a146102375780632f745c591461026857806342842e0e146102985780634f6ccce7146102b457610142565b806301ffc9a71461014757806306fdde0314610177578063081812fc14610195578063095ea7b3146101c557806318160ddd146101e1575b600080fd5b610161600480360381019061015c9190612820565b61045a565b60405161016e9190612868565b60405180910390f35b61017f61046c565b60405161018c919061291c565b60405180910390f35b6101af60048036038101906101aa9190612974565b6104fe565b6040516101bc91906129e2565b60405180910390f35b6101df60048036038101906101da9190612a29565b610544565b005b6101e961065c565b6040516101f69190612a78565b60405180910390f35b61021960048036038101906102149190612d24565b610669565b005b61023560048036038101906102309190612d6d565b6106da565b005b610251600480360381019061024c9190612dc0565b61073a565b60405161025f929190612e00565b60405180910390f35b610282600480360381019061027d9190612a29565b610925565b60405161028f9190612a78565b60405180910390f35b6102b260048036038101906102ad9190612d6d565b6109ca565b005b6102ce60048036038101906102c99190612974565b6109ea565b6040516102db9190612a78565b60405180910390f35b6102fe60048036038101906102f99190612974565b610a5b565b60405161030b91906129e2565b60405180910390f35b61032e60048036038101906103299190612e29565b610ae2565b60405161033b9190612a78565b60405180910390f35b61034c610b9a565b005b610356610bae565b60405161036391906129e2565b60405180910390f35b610374610bd8565b604051610381919061291c565b60405180910390f35b6103a4600480360381019061039f9190612e82565b610c6a565b005b6103c060048036038101906103bb9190612f63565b610c80565b005b6103dc60048036038101906103d79190612974565b610ce2565b6040516103e9919061291c565b60405180910390f35b61040c60048036038101906104079190612fe6565b610cf4565b005b61042860048036038101906104239190613042565b610d2d565b6040516104359190612868565b60405180910390f35b61045860048036038101906104539190612e29565b610dc1565b005b600061046582610e45565b9050919050565b60606002805461047b906130b1565b80601f01602080910402602001604051908101604052809291908181526020018280546104a7906130b1565b80156104f45780601f106104c9576101008083540402835291602001916104f4565b820191906000526020600020905b8154815290600101906020018083116104d757829003601f168201915b5050505050905090565b600061050982610e57565b6006600083815260200190815260200160002060009054906101000a900473ffffffffffffffffffffffffffffffffffffffff169050919050565b600061054f82610a5b565b90508073ffffffffffffffffffffffffffffffffffffffff168373ffffffffffffffffffffffffffffffffffffffff1614156105c0576040517f08c379a00000000000000000000000000000000000000000000000000000000081526004016105b790613155565b60405180910390fd5b8073ffffffffffffffffffffffffffffffffffffffff166105df610ea2565b73ffffffffffffffffffffffffffffffffffffffff16148061060e575061060d81610608610ea2565b610d2d565b5b61064d576040517f08c379a0000000000000000000000000000000000000000000000000000000008152600401610644906131e7565b60405180910390fd5b6106578383610eaa565b505050565b6000600a80549050905090565b610671610f63565b60005b81518110156106d6576106c382828151811061069357610692613207565b5b6020026020010151600001518383815181106106b2576106b1613207565b5b602002602001015160200151610cf4565b80806106ce90613265565b915050610674565b5050565b6106eb6106e5610ea2565b82610fe1565b61072a576040517f08c379a000000000000000000000000000000000000000000000000000000000815260040161072190613320565b60405180910390fd5b610735838383611076565b505050565b6000806000600160008681526020019081526020016000206040518060400160405290816000820160009054906101000a900473ffffffffffffffffffffffffffffffffffffffff1673ffffffffffffffffffffffffffffffffffffffff1673ffffffffffffffffffffffffffffffffffffffff1681526020016000820160149054906101000a90046bffffffffffffffffffffffff166bffffffffffffffffffffffff166bffffffffffffffffffffffff16815250509050600073ffffffffffffffffffffffffffffffffffffffff16816000015173ffffffffffffffffffffffffffffffffffffffff1614156108d05760006040518060400160405290816000820160009054906101000a900473ffffffffffffffffffffffffffffffffffffffff1673ffffffffffffffffffffffffffffffffffffffff1673ffffffffffffffffffffffffffffffffffffffff1681526020016000820160149054906101000a90046bffffffffffffffffffffffff166bffffffffffffffffffffffff166bffffffffffffffffffffffff168152505090505b60006108da611370565b6bffffffffffffffffffffffff1682602001516bffffffffffffffffffffffff16866109069190613340565b61091091906133c9565b90508160000151819350935050509250929050565b600061093083610ae2565b8210610971576040517f08c379a00000000000000000000000000000000000000000000000000000000081526004016109689061346c565b60405180910390fd5b600860008473ffffffffffffffffffffffffffffffffffffffff1673ffffffffffffffffffffffffffffffffffffffff168152602001908152602001600020600083815260200190815260200160002054905092915050565b6109e583838360405180602001604052806000815250610c80565b505050565b60006109f461065c565b8210610a35576040517f08c379a0000000000000000000000000000000000000000000000000000000008152600401610a2c906134fe565b60405180910390fd5b600a8281548110610a4957610a48613207565b5b90600052602060002001549050919050565b600080610a678361137a565b9050600073ffffffffffffffffffffffffffffffffffffffff168173ffffffffffffffffffffffffffffffffffffffff161415610ad9576040517f08c379a0000000000000000000000000000000000000000000000000000000008152600401610ad09061356a565b60405180910390fd5b80915050919050565b60008073ffffffffffffffffffffffffffffffffffffffff168273ffffffffffffffffffffffffffffffffffffffff161415610b53576040517f08c379a0000000000000000000000000000000000000000000000000000000008152600401610b4a906135fc565b60405180910390fd5b600560008373ffffffffffffffffffffffffffffffffffffffff1673ffffffffffffffffffffffffffffffffffffffff168152602001908152602001600020549050919050565b610ba2610f63565b610bac60006113b7565b565b6000600d60009054906101000a900473ffffffffffffffffffffffffffffffffffffffff16905090565b606060038054610be7906130b1565b80601f0160208091040260200160405190810160405280929190818152602001828054610c13906130b1565b8015610c605780601f10610c3557610100808354040283529160200191610c60565b820191906000526020600020905b815481529060010190602001808311610c4357829003601f168201915b5050505050905090565b610c7c610c75610ea2565b838361147d565b5050565b610c91610c8b610ea2565b83610fe1565b610cd0576040517f08c379a0000000000000000000000000000000000000000000000000000000008152600401610cc790613320565b60405180910390fd5b610cdc848484846115ea565b50505050565b6060610ced82611646565b9050919050565b610cfc610f63565b6000610d08600e611759565b9050610d14600e611767565b610d1e838261177d565b610d28818361179b565b505050565b6000600760008473ffffffffffffffffffffffffffffffffffffffff1673ffffffffffffffffffffffffffffffffffffffff16815260200190815260200160002060008373ffffffffffffffffffffffffffffffffffffffff1673ffffffffffffffffffffffffffffffffffffffff16815260200190815260200160002060009054906101000a900460ff16905092915050565b610dc9610f63565b600073ffffffffffffffffffffffffffffffffffffffff168173ffffffffffffffffffffffffffffffffffffffff161415610e39576040517f08c379a0000000000000000000000000000000000000000000000000000000008152600401610e309061368e565b60405180910390fd5b610e42816113b7565b50565b6000610e508261180f565b9050919050565b610e6081611889565b610e9f576040517f08c379a0000000000000000000000000000000000000000000000000000000008152600401610e969061356a565b60405180910390fd5b50565b600033905090565b816006600083815260200190815260200160002060006101000a81548173ffffffffffffffffffffffffffffffffffffffff021916908373ffffffffffffffffffffffffffffffffffffffff160217905550808273ffffffffffffffffffffffffffffffffffffffff16610f1d83610a5b565b73ffffffffffffffffffffffffffffffffffffffff167f8c5be1e5ebec7d5bd14f71427d1e84f3dd0314c0f7b2291e5b200ac8c7c3b92560405160405180910390a45050565b610f6b610ea2565b73ffffffffffffffffffffffffffffffffffffffff16610f89610bae565b73ffffffffffffffffffffffffffffffffffffffff1614610fdf576040517f08c379a0000000000000000000000000000000000000000000000000000000008152600401610fd6906136fa565b60405180910390fd5b565b600080610fed83610a5b565b90508073ffffffffffffffffffffffffffffffffffffffff168473ffffffffffffffffffffffffffffffffffffffff16148061102f575061102e8185610d2d565b5b8061106d57508373ffffffffffffffffffffffffffffffffffffffff16611055846104fe565b73ffffffffffffffffffffffffffffffffffffffff16145b91505092915050565b8273ffffffffffffffffffffffffffffffffffffffff1661109682610a5b565b73ffffffffffffffffffffffffffffffffffffffff16146110ec576040517f08c379a00000000000000000000000000000000000000000000000000000000081526004016110e39061378c565b60405180910390fd5b600073ffffffffffffffffffffffffffffffffffffffff168273ffffffffffffffffffffffffffffffffffffffff16141561115c576040517f08c379a00000000000000000000000000000000000000000000000000000000081526004016111539061381e565b60405180910390fd5b61116983838360016118ca565b8273ffffffffffffffffffffffffffffffffffffffff1661118982610a5b565b73ffffffffffffffffffffffffffffffffffffffff16146111df576040517f08c379a00000000000000000000000000000000000000000000000000000000081526004016111d69061378c565b60405180910390fd5b6006600082815260200190815260200160002060006101000a81549073ffffffffffffffffffffffffffffffffffffffff02191690556001600560008573ffffffffffffffffffffffffffffffffffffffff1673ffffffffffffffffffffffffffffffffffffffff168152602001908152602001600020600082825403925050819055506001600560008473ffffffffffffffffffffffffffffffffffffffff1673ffffffffffffffffffffffffffffffffffffffff16815260200190815260200160002060008282540192505081905550816004600083815260200190815260200160002060006101000a81548173ffffffffffffffffffffffffffffffffffffffff021916908373ffffffffffffffffffffffffffffffffffffffff160217905550808273ffffffffffffffffffffffffffffffffffffffff168473ffffffffffffffffffffffffffffffffffffffff167fddf252ad1be2c89b69c2b068fc378daa952ba7f163c4a11628f55a4df523b3ef60405160405180910390a461136b83838360016118dc565b505050565b6000612710905090565b60006004600083815260200190815260200160002060009054906101000a900473ffffffffffffffffffffffffffffffffffffffff169050919050565b6000600d60009054906101000a900473ffffffffffffffffffffffffffffffffffffffff16905081600d60006101000a81548173ffffffffffffffffffffffffffffffffffffffff021916908373ffffffffffffffffffffffffffffffffffffffff1602179055508173ffffffffffffffffffffffffffffffffffffffff168173ffffffffffffffffffffffffffffffffffffffff167f8be0079c531659141344cd1fd0a4f28419497f9722a3daafe3b4186f6b6457e060405160405180910390a35050565b8173ffffffffffffffffffffffffffffffffffffffff168373ffffffffffffffffffffffffffffffffffffffff1614156114ec576040517f08c379a00000000000000000000000000000000000000000000000000000000081526004016114e39061388a565b60405180910390fd5b80600760008573ffffffffffffffffffffffffffffffffffffffff1673ffffffffffffffffffffffffffffffffffffffff16815260200190815260200160002060008473ffffffffffffffffffffffffffffffffffffffff1673ffffffffffffffffffffffffffffffffffffffff16815260200190815260200160002060006101000a81548160ff0219169083151502179055508173ffffffffffffffffffffffffffffffffffffffff168373ffffffffffffffffffffffffffffffffffffffff167f17307eab39ab6107e8899845ad3d59bd9653f200f220920489ca2b5937696c31836040516115dd9190612868565b60405180910390a3505050565b6115f5848484611076565b611601848484846118e2565b611640576040517f08c379a00000000000000000000000000000000000000000000000000000000081526004016116379061391c565b60405180910390fd5b50505050565b606061165182610e57565b6000600c60008481526020019081526020016000208054611671906130b1565b80601f016020809104026020016040519081016040528092919081815260200182805461169d906130b1565b80156116ea5780601f106116bf576101008083540402835291602001916116ea565b820191906000526020600020905b8154815290600101906020018083116116cd57829003601f168201915b5050505050905060006116fb611a79565b9050600081511415611711578192505050611754565b60008251111561174657808260405160200161172e929190613978565b60405160208183030381529060405292505050611754565b61174f84611a90565b925050505b919050565b600081600001549050919050565b6001816000016000828254019250508190555050565b611797828260405180602001604052806000815250611af8565b5050565b6117a482611889565b6117e3576040517f08c379a00000000000000000000000000000000000000000000000000000000081526004016117da90613a0e565b60405180910390fd5b80600c6000848152602001908152602001600020908051906020019061180a929190612711565b505050565b60007f780e9d63000000000000000000000000000000000000000000000000000000007bffffffffffffffffffffffffffffffffffffffffffffffffffffffff1916827bffffffffffffffffffffffffffffffffffffffffffffffffffffffff19161480611882575061188182611b53565b5b9050919050565b60008073ffffffffffffffffffffffffffffffffffffffff166118ab8361137a565b73ffffffffffffffffffffffffffffffffffffffff1614159050919050565b6118d684848484611c35565b50505050565b50505050565b60006119038473ffffffffffffffffffffffffffffffffffffffff16611d95565b15611a6c578373ffffffffffffffffffffffffffffffffffffffff1663150b7a0261192c610ea2565b8786866040518563ffffffff1660e01b815260040161194e9493929190613a83565b602060405180830381600087803b15801561196857600080fd5b505af192505050801561199957506040513d601f19601f820116820180604052508101906119969190613ae4565b60015b611a1c573d80600081146119c9576040519150601f19603f3d011682016040523d82523d6000602084013e6119ce565b606091505b50600081511415611a14576040517f08c379a0000000000000000000000000000000000000000000000000000000008152600401611a0b9061391c565b60405180910390fd5b805181602001fd5b63150b7a0260e01b7bffffffffffffffffffffffffffffffffffffffffffffffffffffffff1916817bffffffffffffffffffffffffffffffffffffffffffffffffffffffff191614915050611a71565b600190505b949350505050565b606060405180602001604052806000815250905090565b6060611a9b82610e57565b6000611aa5611a79565b90506000815111611ac55760405180602001604052806000815250611af0565b80611acf84611db8565b604051602001611ae0929190613978565b6040516020818303038152906040525b915050919050565b611b028383611e90565b611b0f60008484846118e2565b611b4e576040517f08c379a0000000000000000000000000000000000000000000000000000000008152600401611b459061391c565b60405180910390fd5b505050565b60007f80ac58cd000000000000000000000000000000000000000000000000000000007bffffffffffffffffffffffffffffffffffffffffffffffffffffffff1916827bffffffffffffffffffffffffffffffffffffffffffffffffffffffff19161480611c1e57507f5b5e139f000000000000000000000000000000000000000000000000000000007bffffffffffffffffffffffffffffffffffffffffffffffffffffffff1916827bffffffffffffffffffffffffffffffffffffffffffffffffffffffff1916145b80611c2e5750611c2d826120ae565b5b9050919050565b611c4184848484612128565b6001811115611c85576040517f08c379a0000000000000000000000000000000000000000000000000000000008152600401611c7c90613b83565b60405180910390fd5b6000829050600073ffffffffffffffffffffffffffffffffffffffff168573ffffffffffffffffffffffffffffffffffffffff161415611ccd57611cc88161224e565b611d0c565b8373ffffffffffffffffffffffffffffffffffffffff168573ffffffffffffffffffffffffffffffffffffffff1614611d0b57611d0a8582612297565b5b5b600073ffffffffffffffffffffffffffffffffffffffff168473ffffffffffffffffffffffffffffffffffffffff161415611d4f57611d4a81612404565b611d8e565b8473ffffffffffffffffffffffffffffffffffffffff168473ffffffffffffffffffffffffffffffffffffffff1614611d8d57611d8c84826124d5565b5b5b5050505050565b6000808273ffffffffffffffffffffffffffffffffffffffff163b119050919050565b606060006001611dc784612554565b01905060008167ffffffffffffffff811115611de657611de5612a98565b5b6040519080825280601f01601f191660200182016040528015611e185781602001600182028036833780820191505090505b509050600082602001820190505b600115611e85578080600190039150507f3031323334353637383961626364656600000000000000000000000000000000600a86061a8153600a8581611e6f57611e6e61339a565b5b0494506000851415611e8057611e85565b611e26565b819350505050919050565b600073ffffffffffffffffffffffffffffffffffffffff168273ffffffffffffffffffffffffffffffffffffffff161415611f00576040517f08c379a0000000000000000000000000000000000000000000000000000000008152600401611ef790613bef565b60405180910390fd5b611f0981611889565b15611f49576040517f08c379a0000000000000000000000000000000000000000000000000000000008152600401611f4090613c5b565b60405180910390fd5b611f576000838360016118ca565b611f6081611889565b15611fa0576040517f08c379a0000000000000000000000000000000000000000000000000000000008152600401611f9790613c5b565b60405180910390fd5b6001600560008473ffffffffffffffffffffffffffffffffffffffff1673ffffffffffffffffffffffffffffffffffffffff16815260200190815260200160002060008282540192505081905550816004600083815260200190815260200160002060006101000a81548173ffffffffffffffffffffffffffffffffffffffff021916908373ffffffffffffffffffffffffffffffffffffffff160217905550808273ffffffffffffffffffffffffffffffffffffffff16600073ffffffffffffffffffffffffffffffffffffffff167fddf252ad1be2c89b69c2b068fc378daa952ba7f163c4a11628f55a4df523b3ef60405160405180910390a46120aa6000838360016118dc565b5050565b60007f2a55205a000000000000000000000000000000000000000000000000000000007bffffffffffffffffffffffffffffffffffffffffffffffffffffffff1916827bffffffffffffffffffffffffffffffffffffffffffffffffffffffff191614806121215750612120826126a7565b5b9050919050565b600181111561224857600073ffffffffffffffffffffffffffffffffffffffff168473ffffffffffffffffffffffffffffffffffffffff16146121bc5780600560008673ffffffffffffffffffffffffffffffffffffffff1673ffffffffffffffffffffffffffffffffffffffff16815260200190815260200160002060008282546121b49190613c7b565b925050819055505b600073ffffffffffffffffffffffffffffffffffffffff168373ffffffffffffffffffffffffffffffffffffffff16146122475780600560008573ffffffffffffffffffffffffffffffffffffffff1673ffffffffffffffffffffffffffffffffffffffff168152602001908152602001600020600082825461223f9190613caf565b925050819055505b5b50505050565b600a80549050600b600083815260200190815260200160002081905550600a81908060018154018082558091505060019003906000526020600020016000909190919091505550565b600060016122a484610ae2565b6122ae9190613c7b565b9050600060096000848152602001908152602001600020549050818114612393576000600860008673ffffffffffffffffffffffffffffffffffffffff1673ffffffffffffffffffffffffffffffffffffffff168152602001908152602001600020600084815260200190815260200160002054905080600860008773ffffffffffffffffffffffffffffffffffffffff1673ffffffffffffffffffffffffffffffffffffffff168152602001908152602001600020600084815260200190815260200160002081905550816009600083815260200190815260200160002081905550505b6009600084815260200190815260200160002060009055600860008573ffffffffffffffffffffffffffffffffffffffff1673ffffffffffffffffffffffffffffffffffffffff16815260200190815260200160002060008381526020019081526020016000206000905550505050565b60006001600a805490506124189190613c7b565b90506000600b60008481526020019081526020016000205490506000600a838154811061244857612447613207565b5b9060005260206000200154905080600a838154811061246a57612469613207565b5b906000526020600020018190555081600b600083815260200190815260200160002081905550600b600085815260200190815260200160002060009055600a8054806124b9576124b8613d05565b5b6001900381819060005260206000200160009055905550505050565b60006124e083610ae2565b905081600860008573ffffffffffffffffffffffffffffffffffffffff1673ffffffffffffffffffffffffffffffffffffffff168152602001908152602001600020600083815260200190815260200160002081905550806009600084815260200190815260200160002081905550505050565b600080600090507a184f03e93ff9f4daa797ed6e38ed64bf6a1f01000000000000000083106125b2577a184f03e93ff9f4daa797ed6e38ed64bf6a1f01000000000000000083816125a8576125a761339a565b5b0492506040810190505b6d04ee2d6d415b85acef810000000083106125ef576d04ee2d6d415b85acef810000000083816125e5576125e461339a565b5b0492506020810190505b662386f26fc10000831061261e57662386f26fc1000083816126145761261361339a565b5b0492506010810190505b6305f5e1008310612647576305f5e100838161263d5761263c61339a565b5b0492506008810190505b612710831061266c5761271083816126625761266161339a565b5b0492506004810190505b6064831061268f57606483816126855761268461339a565b5b0492506002810190505b600a831061269e576001810190505b80915050919050565b60007f01ffc9a7000000000000000000000000000000000000000000000000000000007bffffffffffffffffffffffffffffffffffffffffffffffffffffffff1916827bffffffffffffffffffffffffffffffffffffffffffffffffffffffff1916149050919050565b82805461271d906130b1565b90600052602060002090601f01602090048101928261273f5760008555612786565b82601f1061275857805160ff1916838001178555612786565b82800160010185558215612786579182015b8281111561278557825182559160200191906001019061276a565b5b5090506127939190612797565b5090565b5b808211156127b0576000816000905550600101612798565b5090565b6000604051905090565b600080fd5b600080fd5b60007fffffffff0000000000000000000000000000000000000000000000000000000082169050919050565b6127fd816127c8565b811461280857600080fd5b50565b60008135905061281a816127f4565b92915050565b600060208284031215612836576128356127be565b5b60006128448482850161280b565b91505092915050565b60008115159050919050565b6128628161284d565b82525050565b600060208201905061287d6000830184612859565b92915050565b600081519050919050565b600082825260208201905092915050565b60005b838110156128bd5780820151818401526020810190506128a2565b838111156128cc576000848401525b50505050565b6000601f19601f8301169050919050565b60006128ee82612883565b6128f8818561288e565b935061290881856020860161289f565b612911816128d2565b840191505092915050565b6000602082019050818103600083015261293681846128e3565b905092915050565b6000819050919050565b6129518161293e565b811461295c57600080fd5b50565b60008135905061296e81612948565b92915050565b60006020828403121561298a576129896127be565b5b60006129988482850161295f565b91505092915050565b600073ffffffffffffffffffffffffffffffffffffffff82169050919050565b60006129cc826129a1565b9050919050565b6129dc816129c1565b82525050565b60006020820190506129f760008301846129d3565b92915050565b612a06816129c1565b8114612a1157600080fd5b50565b600081359050612a23816129fd565b92915050565b60008060408385031215612a4057612a3f6127be565b5b6000612a4e85828601612a14565b9250506020612a5f8582860161295f565b9150509250929050565b612a728161293e565b82525050565b6000602082019050612a8d6000830184612a69565b92915050565b600080fd5b7f4e487b7100000000000000000000000000000000000000000000000000000000600052604160045260246000fd5b612ad0826128d2565b810181811067ffffffffffffffff82111715612aef57612aee612a98565b5b80604052505050565b6000612b026127b4565b9050612b0e8282612ac7565b919050565b600067ffffffffffffffff821115612b2e57612b2d612a98565b5b602082029050602081019050919050565b600080fd5b600080fd5b600080fd5b600080fd5b600067ffffffffffffffff821115612b6e57612b6d612a98565b5b612b77826128d2565b9050602081019050919050565b82818337600083830152505050565b6000612ba6612ba184612b53565b612af8565b905082815260208101848484011115612bc257612bc1612b4e565b5b612bcd848285612b84565b509392505050565b600082601f830112612bea57612be9612a93565b5b8135612bfa848260208601612b93565b91505092915050565b600060408284031215612c1957612c18612b44565b5b612c236040612af8565b90506000612c3384828501612a14565b600083015250602082013567ffffffffffffffff811115612c5757612c56612b49565b5b612c6384828501612bd5565b60208301525092915050565b6000612c82612c7d84612b13565b612af8565b90508083825260208201905060208402830185811115612ca557612ca4612b3f565b5b835b81811015612cec57803567ffffffffffffffff811115612cca57612cc9612a93565b5b808601612cd78982612c03565b85526020850194505050602081019050612ca7565b5050509392505050565b600082601f830112612d0b57612d0a612a93565b5b8135612d1b848260208601612c6f565b91505092915050565b600060208284031215612d3a57612d396127be565b5b600082013567ffffffffffffffff811115612d5857612d576127c3565b5b612d6484828501612cf6565b91505092915050565b600080600060608486031215612d8657612d856127be565b5b6000612d9486828701612a14565b9350506020612da586828701612a14565b9250506040612db68682870161295f565b9150509250925092565b60008060408385031215612dd757612dd66127be565b5b6000612de58582860161295f565b9250506020612df68582860161295f565b9150509250929050565b6000604082019050612e1560008301856129d3565b612e226020830184612a69565b9392505050565b600060208284031215612e3f57612e3e6127be565b5b6000612e4d84828501612a14565b91505092915050565b612e5f8161284d565b8114612e6a57600080fd5b50565b600081359050612e7c81612e56565b92915050565b60008060408385031215612e9957612e986127be565b5b6000612ea785828601612a14565b9250506020612eb885828601612e6d565b9150509250929050565b600067ffffffffffffffff821115612edd57612edc612a98565b5b612ee6826128d2565b9050602081019050919050565b6000612f06612f0184612ec2565b612af8565b905082815260208101848484011115612f2257612f21612b4e565b5b612f2d848285612b84565b509392505050565b600082601f830112612f4a57612f49612a93565b5b8135612f5a848260208601612ef3565b91505092915050565b60008060008060808587031215612f7d57612f7c6127be565b5b6000612f8b87828801612a14565b9450506020612f9c87828801612a14565b9350506040612fad8782880161295f565b925050606085013567ffffffffffffffff811115612fce57612fcd6127c3565b5b612fda87828801612f35565b91505092959194509250565b60008060408385031215612ffd57612ffc6127be565b5b600061300b85828601612a14565b925050602083013567ffffffffffffffff81111561302c5761302b6127c3565b5b61303885828601612bd5565b9150509250929050565b60008060408385031215613059576130586127be565b5b600061306785828601612a14565b925050602061307885828601612a14565b9150509250929050565b7f4e487b7100000000000000000000000000000000000000000000000000000000600052602260045260246000fd5b600060028204905060018216806130c957607f821691505b602082108114156130dd576130dc613082565b5b50919050565b7f4552433732313a20617070726f76616c20746f2063757272656e74206f776e6560008201527f7200000000000000000000000000000000000000000000000000000000000000602082015250565b600061313f60218361288e565b915061314a826130e3565b604082019050919050565b6000602082019050818103600083015261316e81613132565b9050919050565b7f4552433732313a20617070726f76652063616c6c6572206973206e6f7420746f60008201527f6b656e206f776e6572206f7220617070726f76656420666f7220616c6c000000602082015250565b60006131d1603d8361288e565b91506131dc82613175565b604082019050919050565b60006020820190508181036000830152613200816131c4565b9050919050565b7f4e487b7100000000000000000000000000000000000000000000000000000000600052603260045260246000fd5b7f4e487b7100000000000000000000000000000000000000000000000000000000600052601160045260246000fd5b60006132708261293e565b91507fffffffffffffffffffffffffffffffffffffffffffffffffffffffffffffffff8214156132a3576132a2613236565b5b600182019050919050565b7f4552433732313a2063616c6c6572206973206e6f7420746f6b656e206f776e6560008201527f72206f7220617070726f76656400000000000000000000000000000000000000602082015250565b600061330a602d8361288e565b9150613315826132ae565b604082019050919050565b60006020820190508181036000830152613339816132fd565b9050919050565b600061334b8261293e565b91506133568361293e565b9250817fffffffffffffffffffffffffffffffffffffffffffffffffffffffffffffffff048311821515161561338f5761338e613236565b5b828202905092915050565b7f4e487b7100000000000000000000000000000000000000000000000000000000600052601260045260246000fd5b60006133d48261293e565b91506133df8361293e565b9250826133ef576133ee61339a565b5b828204905092915050565b7f455243373231456e756d657261626c653a206f776e657220696e646578206f7560008201527f74206f6620626f756e6473000000000000000000000000000000000000000000602082015250565b6000613456602b8361288e565b9150613461826133fa565b604082019050919050565b6000602082019050818103600083015261348581613449565b9050919050565b7f455243373231456e756d657261626c653a20676c6f62616c20696e646578206f60008201527f7574206f6620626f756e64730000000000000000000000000000000000000000602082015250565b60006134e8602c8361288e565b91506134f38261348c565b604082019050919050565b60006020820190508181036000830152613517816134db565b9050919050565b7f4552433732313a20696e76616c696420746f6b656e2049440000000000000000600082015250565b600061355460188361288e565b915061355f8261351e565b602082019050919050565b6000602082019050818103600083015261358381613547565b9050919050565b7f4552433732313a2061646472657373207a65726f206973206e6f74206120766160008201527f6c6964206f776e65720000000000000000000000000000000000000000000000602082015250565b60006135e660298361288e565b91506135f18261358a565b604082019050919050565b60006020820190508181036000830152613615816135d9565b9050919050565b7f4f776e61626c653a206e6577206f776e657220697320746865207a65726f206160008201527f6464726573730000000000000000000000000000000000000000000000000000602082015250565b600061367860268361288e565b91506136838261361c565b604082019050919050565b600060208201905081810360008301526136a78161366b565b9050919050565b7f4f776e61626c653a2063616c6c6572206973206e6f7420746865206f776e6572600082015250565b60006136e460208361288e565b91506136ef826136ae565b602082019050919050565b60006020820190508181036000830152613713816136d7565b9050919050565b7f4552433732313a207472616e736665722066726f6d20696e636f72726563742060008201527f6f776e6572000000000000000000000000000000000000000000000000000000602082015250565b600061377660258361288e565b91506137818261371a565b604082019050919050565b600060208201905081810360008301526137a581613769565b9050919050565b7f4552433732313a207472616e7366657220746f20746865207a65726f2061646460008201527f7265737300000000000000000000000000000000000000000000000000000000602082015250565b600061380860248361288e565b9150613813826137ac565b604082019050919050565b60006020820190508181036000830152613837816137fb565b9050919050565b7f4552433732313a20617070726f766520746f2063616c6c657200000000000000600082015250565b600061387460198361288e565b915061387f8261383e565b602082019050919050565b600060208201905081810360008301526138a381613867565b9050919050565b7f4552433732313a207472616e7366657220746f206e6f6e20455243373231526560008201527f63656976657220696d706c656d656e7465720000000000000000000000000000602082015250565b600061390660328361288e565b9150613911826138aa565b604082019050919050565b60006020820190508181036000830152613935816138f9565b9050919050565b600081905092915050565b600061395282612883565b61395c818561393c565b935061396c81856020860161289f565b80840191505092915050565b60006139848285613947565b91506139908284613947565b91508190509392505050565b7f45524337323155524953746f726167653a2055524920736574206f66206e6f6e60008201527f6578697374656e7420746f6b656e000000000000000000000000000000000000602082015250565b60006139f8602e8361288e565b9150613a038261399c565b604082019050919050565b60006020820190508181036000830152613a27816139eb565b9050919050565b600081519050919050565b600082825260208201905092915050565b6000613a5582613a2e565b613a5f8185613a39565b9350613a6f81856020860161289f565b613a78816128d2565b840191505092915050565b6000608082019050613a9860008301876129d3565b613aa560208301866129d3565b613ab26040830185612a69565b8181036060830152613ac48184613a4a565b905095945050505050565b600081519050613ade816127f4565b92915050565b600060208284031215613afa57613af96127be565b5b6000613b0884828501613acf565b91505092915050565b7f455243373231456e756d657261626c653a20636f6e736563757469766520747260008201527f616e7366657273206e6f7420737570706f727465640000000000000000000000602082015250565b6000613b6d60358361288e565b9150613b7882613b11565b604082019050919050565b60006020820190508181036000830152613b9c81613b60565b9050919050565b7f4552433732313a206d696e7420746f20746865207a65726f2061646472657373600082015250565b6000613bd960208361288e565b9150613be482613ba3565b602082019050919050565b60006020820190508181036000830152613c0881613bcc565b9050919050565b7f4552433732313a20746f6b656e20616c7265616479206d696e74656400000000600082015250565b6000613c45601c8361288e565b9150613c5082613c0f565b602082019050919050565b60006020820190508181036000830152613c7481613c38565b9050919050565b6000613c868261293e565b9150613c918361293e565b925082821015613ca457613ca3613236565b5b828203905092915050565b6000613cba8261293e565b9150613cc58361293e565b9250827fffffffffffffffffffffffffffffffffffffffffffffffffffffffffffffffff03821115613cfa57613cf9613236565b5b828201905092915050565b7f4e487b7100000000000000000000000000000000000000000000000000000000600052603160045260246000fdfea2646970667358221220008ec3d768ec495bf02d59f4d3f44400da41c7da0a48be3beaac98cbbfe7b10e64736f6c63430008090033",
  "linkReferences": {},
  "deployedLinkReferences": {}
}