{
  "_format": "hh-sol-artifact-1",
  "contractName": "COLLECTION",
  "sourceName": "contracts/ERC721_BASE.sol",
  "abi": [
    {
      "inputs": [
        {
          "internalType": "string",
          "name": "name_",
          "type": "string"
        },
        {
          "internalType": "string",
          "name": "symbol_",
          "type": "string"
        },
        {
          "internalType": "string",
          "name": "contractURI_",
          "type": "string"
        }
      ],
      "stateMutability": "nonpayable",
      "type": "constructor"
    },
    {
      "anonymous": false,
      "inputs": [
        {
          "indexed": true,
          "internalType": "address",
          "name": "owner",
          "type": "address"
        },
        {
          "indexed": true,
          "internalType": "address",
          "name": "approved",
          "type": "address"
        },
        {
          "indexed": true,
          "internalType": "uint256",
          "name": "tokenId",
          "type": "uint256"
        }
      ],
      "name": "Approval",
      "type": "event"
    },
    {
      "anonymous": false,
      "inputs": [
        {
          "indexed": true,
          "internalType": "address",
          "name": "owner",
          "type": "address"
        },
        {
          "indexed": true,
          "internalType": "address",
          "name": "operator",
          "type": "address"
        },
        {
          "indexed": false,
          "internalType": "bool",
          "name": "approved",
          "type": "bool"
        }
      ],
      "name": "ApprovalForAll",
      "type": "event"
    },
    {
      "anonymous": false,
      "inputs": [
        {
          "indexed": true,
          "internalType": "address",
          "name": "previousOwner",
          "type": "address"
        },
        {
          "indexed": true,
          "internalType": "address",
          "name": "newOwner",
          "type": "address"
        }
      ],
      "name": "OwnershipTransferred",
      "type": "event"
    },
    {
      "anonymous": false,
      "inputs": [
        {
          "indexed": true,
          "internalType": "address",
          "name": "from",
          "type": "address"
        },
        {
          "indexed": true,
          "internalType": "address",
          "name": "to",
          "type": "address"
        },
        {
          "indexed": true,
          "internalType": "uint256",
          "name": "tokenId",
          "type": "uint256"
        }
      ],
      "name": "Transfer",
      "type": "event"
    },
    {
      "inputs": [
        {
          "internalType": "address",
          "name": "to",
          "type": "address"
        },
        {
          "internalType": "uint256",
          "name": "tokenId",
          "type": "uint256"
        }
      ],
      "name": "approve",
      "outputs": [],
      "stateMutability": "nonpayable",
      "type": "function"
    },
    {
      "inputs": [
        {
          "internalType": "address",
          "name": "owner",
          "type": "address"
        }
      ],
      "name": "balanceOf",
      "outputs": [
        {
          "internalType": "uint256",
          "name": "",
          "type": "uint256"
        }
      ],
      "stateMutability": "view",
      "type": "function"
    },
    {
      "inputs": [],
      "name": "contractURI",
      "outputs": [
        {
          "internalType": "string",
          "name": "",
          "type": "string"
        }
      ],
      "stateMutability": "view",
      "type": "function"
    },
    {
      "inputs": [
        {
          "internalType": "uint256",
          "name": "tokenId",
          "type": "uint256"
        }
      ],
      "name": "getApproved",
      "outputs": [
        {
          "internalType": "address",
          "name": "",
          "type": "address"
        }
      ],
      "stateMutability": "view",
      "type": "function"
    },
    {
      "inputs": [
        {
          "internalType": "address",
          "name": "owner",
          "type": "address"
        },
        {
          "internalType": "address",
          "name": "operator",
          "type": "address"
        }
      ],
      "name": "isApprovedForAll",
      "outputs": [
        {
          "internalType": "bool",
          "name": "",
          "type": "bool"
        }
      ],
      "stateMutability": "view",
      "type": "function"
    },
    {
      "inputs": [
        {
          "components": [
            {
              "internalType": "address",
              "name": "to",
              "type": "address"
            },
            {
              "internalType": "string",
              "name": "tokenURI",
              "type": "string"
            }
          ],
          "internalType": "struct COLLECTION.ItemParam[]",
          "name": "items",
          "type": "tuple[]"
        }
      ],
      "name": "multiSafeMint",
      "outputs": [],
      "stateMutability": "nonpayable",
      "type": "function"
    },
    {
      "inputs": [],
      "name": "name",
      "outputs": [
        {
          "internalType": "string",
          "name": "",
          "type": "string"
        }
      ],
      "stateMutability": "view",
      "type": "function"
    },
    {
      "inputs": [],
      "name": "owner",
      "outputs": [
        {
          "internalType": "address",
          "name": "",
          "type": "address"
        }
      ],
      "stateMutability": "view",
      "type": "function"
    },
    {
      "inputs": [
        {
          "internalType": "uint256",
          "name": "tokenId",
          "type": "uint256"
        }
      ],
      "name": "ownerOf",
      "outputs": [
        {
          "internalType": "address",
          "name": "",
          "type": "address"
        }
      ],
      "stateMutability": "view",
      "type": "function"
    },
    {
      "inputs": [],
      "name": "renounceOwnership",
      "outputs": [],
      "stateMutability": "nonpayable",
      "type": "function"
    },
    {
      "inputs": [
        {
          "internalType": "address",
          "name": "to",
          "type": "address"
        },
        {
          "internalType": "string",
          "name": "tokenURI_",
          "type": "string"
        }
      ],
      "name": "safeMint",
      "outputs": [],
      "stateMutability": "nonpayable",
      "type": "function"
    },
    {
      "inputs": [
        {
          "internalType": "address",
          "name": "from",
          "type": "address"
        },
        {
          "internalType": "address",
          "name": "to",
          "type": "address"
        },
        {
          "internalType": "uint256",
          "name": "tokenId",
          "type": "uint256"
        }
      ],
      "name": "safeTransferFrom",
      "outputs": [],
      "stateMutability": "nonpayable",
      "type": "function"
    },
    {
      "inputs": [
        {
          "internalType": "address",
          "name": "from",
          "type": "address"
        },
        {
          "internalType": "address",
          "name": "to",
          "type": "address"
        },
        {
          "internalType": "uint256",
          "name": "tokenId",
          "type": "uint256"
        },
        {
          "internalType": "bytes",
          "name": "_data",
          "type": "bytes"
        }
      ],
      "name": "safeTransferFrom",
      "outputs": [],
      "stateMutability": "nonpayable",
      "type": "function"
    },
    {
      "inputs": [
        {
          "internalType": "address",
          "name": "operator",
          "type": "address"
        },
        {
          "internalType": "bool",
          "name": "approved",
          "type": "bool"
        }
      ],
      "name": "setApprovalForAll",
      "outputs": [],
      "stateMutability": "nonpayable",
      "type": "function"
    },
    {
      "inputs": [
        {
          "internalType": "uint256",
          "name": "tokenId_",
          "type": "uint256"
        },
        {
          "internalType": "string",
          "name": "tokenURI_",
          "type": "string"
        }
      ],
      "name": "setTokenURI",
      "outputs": [],
      "stateMutability": "nonpayable",
      "type": "function"
    },
    {
      "inputs": [
        {
          "internalType": "bytes4",
          "name": "interfaceId",
          "type": "bytes4"
        }
      ],
      "name": "supportsInterface",
      "outputs": [
        {
          "internalType": "bool",
          "name": "",
          "type": "bool"
        }
      ],
      "stateMutability": "view",
      "type": "function"
    },
    {
      "inputs": [],
      "name": "symbol",
      "outputs": [
        {
          "internalType": "string",
          "name": "",
          "type": "string"
        }
      ],
      "stateMutability": "view",
      "type": "function"
    },
    {
      "inputs": [
        {
          "internalType": "uint256",
          "name": "tokenId",
          "type": "uint256"
        }
      ],
      "name": "tokenURI",
      "outputs": [
        {
          "internalType": "string",
          "name": "",
          "type": "string"
        }
      ],
      "stateMutability": "view",
      "type": "function"
    },
    {
      "inputs": [
        {
          "internalType": "address",
          "name": "from",
          "type": "address"
        },
        {
          "internalType": "address",
          "name": "to",
          "type": "address"
        },
        {
          "internalType": "uint256",
          "name": "tokenId",
          "type": "uint256"
        }
      ],
      "name": "transferFrom",
      "outputs": [],
      "stateMutability": "nonpayable",
      "type": "function"
    },
    {
      "inputs": [
        {
          "internalType": "address",
          "name": "newOwner",
          "type": "address"
        }
      ],
      "name": "transferOwnership",
      "outputs": [],
      "stateMutability": "nonpayable",
      "type": "function"
    }
  ],
  "bytecode": "0x60806040523480156200001157600080fd5b5060405162003a4238038062003a4283398181016040528101906200003791906200029f565b82828160009080519060200190620000519291906200017d565b5080600190805190602001906200006a9291906200017d565b5050506200008d62000081620000af60201b60201c565b620000b760201b60201c565b8060099080519060200190620000a59291906200017d565b50505050620004b0565b600033905090565b6000600760009054906101000a900473ffffffffffffffffffffffffffffffffffffffff16905081600760006101000a81548173ffffffffffffffffffffffffffffffffffffffff021916908373ffffffffffffffffffffffffffffffffffffffff1602179055508173ffffffffffffffffffffffffffffffffffffffff168173ffffffffffffffffffffffffffffffffffffffff167f8be0079c531659141344cd1fd0a4f28419497f9722a3daafe3b4186f6b6457e060405160405180910390a35050565b8280546200018b90620003d5565b90600052602060002090601f016020900481019282620001af5760008555620001fb565b82601f10620001ca57805160ff1916838001178555620001fb565b82800160010185558215620001fb579182015b82811115620001fa578251825591602001919060010190620001dd565b5b5090506200020a91906200020e565b5090565b5b80821115620002295760008160009055506001016200020f565b5090565b6000620002446200023e8462000369565b62000340565b9050828152602081018484840111156200025d57600080fd5b6200026a8482856200039f565b509392505050565b600082601f8301126200028457600080fd5b8151620002968482602086016200022d565b91505092915050565b600080600060608486031215620002b557600080fd5b600084015167ffffffffffffffff811115620002d057600080fd5b620002de8682870162000272565b935050602084015167ffffffffffffffff811115620002fc57600080fd5b6200030a8682870162000272565b925050604084015167ffffffffffffffff8111156200032857600080fd5b620003368682870162000272565b9150509250925092565b60006200034c6200035f565b90506200035a82826200040b565b919050565b6000604051905090565b600067ffffffffffffffff82111562000387576200038662000470565b5b62000392826200049f565b9050602081019050919050565b60005b83811015620003bf578082015181840152602081019050620003a2565b83811115620003cf576000848401525b50505050565b60006002820490506001821680620003ee57607f821691505b6020821081141562000405576200040462000441565b5b50919050565b62000416826200049f565b810181811067ffffffffffffffff8211171562000438576200043762000470565b5b80604052505050565b7f4e487b7100000000000000000000000000000000000000000000000000000000600052602260045260246000fd5b7f4e487b7100000000000000000000000000000000000000000000000000000000600052604160045260246000fd5b6000601f19601f8301169050919050565b61358280620004c06000396000f3fe608060405234801561001057600080fd5b506004361061012c5760003560e01c8063715018a6116100ad578063c87b56dd11610071578063c87b56dd14610319578063d204c45e14610349578063e8a3d48514610365578063e985e9c514610383578063f2fde38b146103b35761012c565b8063715018a61461029b5780638da5cb5b146102a557806395d89b41146102c3578063a22cb465146102e1578063b88d4fde146102fd5761012c565b80631c02aeaf116100f45780631c02aeaf146101e757806323b872dd1461020357806342842e0e1461021f5780636352211e1461023b57806370a082311461026b5761012c565b806301ffc9a71461013157806306fdde0314610161578063081812fc1461017f578063095ea7b3146101af578063162094c4146101cb575b600080fd5b61014b600480360381019061014691906123af565b6103cf565b6040516101589190612913565b60405180910390f35b6101696104b1565b604051610176919061292e565b60405180910390f35b61019960048036038101906101949190612401565b610543565b6040516101a691906128ac565b60405180910390f35b6101c960048036038101906101c49190612332565b6105c8565b005b6101e560048036038101906101e0919061242a565b6106e0565b005b61020160048036038101906101fc919061236e565b61076a565b005b61021d600480360381019061021891906121d8565b6108c1565b005b610239600480360381019061023491906121d8565b610921565b005b61025560048036038101906102509190612401565b610941565b60405161026291906128ac565b60405180910390f35b61028560048036038101906102809190612173565b6109f3565b6040516102929190612b90565b60405180910390f35b6102a3610aab565b005b6102ad610b33565b6040516102ba91906128ac565b60405180910390f35b6102cb610b5d565b6040516102d8919061292e565b60405180910390f35b6102fb60048036038101906102f691906122a2565b610bef565b005b61031760048036038101906103129190612227565b610d70565b005b610333600480360381019061032e9190612401565b610dd2565b604051610340919061292e565b60405180910390f35b610363600480360381019061035e91906122de565b610de4565b005b61036d610e94565b60405161037a919061292e565b60405180910390f35b61039d6004803603810190610398919061219c565b610ebc565b6040516103aa9190612913565b60405180910390f35b6103cd60048036038101906103c89190612173565b610f50565b005b60007f80ac58cd000000000000000000000000000000000000000000000000000000007bffffffffffffffffffffffffffffffffffffffffffffffffffffffff1916827bffffffffffffffffffffffffffffffffffffffffffffffffffffffff1916148061049a57507f5b5e139f000000000000000000000000000000000000000000000000000000007bffffffffffffffffffffffffffffffffffffffffffffffffffffffff1916827bffffffffffffffffffffffffffffffffffffffffffffffffffffffff1916145b806104aa57506104a982611048565b5b9050919050565b6060600080546104c090612e27565b80601f01602080910402602001604051908101604052809291908181526020018280546104ec90612e27565b80156105395780601f1061050e57610100808354040283529160200191610539565b820191906000526020600020905b81548152906001019060200180831161051c57829003601f168201915b5050505050905090565b600061054e826110b2565b61058d576040517f08c379a000000000000000000000000000000000000000000000000000000000815260040161058490612ad0565b60405180910390fd5b6004600083815260200190815260200160002060009054906101000a900473ffffffffffffffffffffffffffffffffffffffff169050919050565b60006105d382610941565b90508073ffffffffffffffffffffffffffffffffffffffff168373ffffffffffffffffffffffffffffffffffffffff161415610644576040517f08c379a000000000000000000000000000000000000000000000000000000000815260040161063b90612b50565b60405180910390fd5b8073ffffffffffffffffffffffffffffffffffffffff1661066361111e565b73ffffffffffffffffffffffffffffffffffffffff16148061069257506106918161068c61111e565b610ebc565b5b6106d1576040517f08c379a00000000000000000000000000000000000000000000000000000000081526004016106c890612a10565b60405180910390fd5b6106db8383611126565b505050565b6106e861111e565b73ffffffffffffffffffffffffffffffffffffffff16610706610b33565b73ffffffffffffffffffffffffffffffffffffffff161461075c576040517f08c379a000000000000000000000000000000000000000000000000000000000815260040161075390612af0565b60405180910390fd5b61076682826111df565b5050565b61077261111e565b73ffffffffffffffffffffffffffffffffffffffff16610790610b33565b73ffffffffffffffffffffffffffffffffffffffff16146107e6576040517f08c379a00000000000000000000000000000000000000000000000000000000081526004016107dd90612af0565b60405180910390fd5b60005b81518110156108bd5761084982828151811061082e577f4e487b7100000000000000000000000000000000000000000000000000000000600052603260045260246000fd5b6020026020010151600001516108446008611253565b611261565b6108a06108566008611253565b83838151811061088f577f4e487b7100000000000000000000000000000000000000000000000000000000600052603260045260246000fd5b6020026020010151602001516111df565b6108aa600861127f565b80806108b590612e8a565b9150506107e9565b5050565b6108d26108cc61111e565b82611295565b610911576040517f08c379a000000000000000000000000000000000000000000000000000000000815260040161090890612b70565b60405180910390fd5b61091c838383611373565b505050565b61093c83838360405180602001604052806000815250610d70565b505050565b6000806002600084815260200190815260200160002060009054906101000a900473ffffffffffffffffffffffffffffffffffffffff169050600073ffffffffffffffffffffffffffffffffffffffff168173ffffffffffffffffffffffffffffffffffffffff1614156109ea576040517f08c379a00000000000000000000000000000000000000000000000000000000081526004016109e190612a50565b60405180910390fd5b80915050919050565b60008073ffffffffffffffffffffffffffffffffffffffff168273ffffffffffffffffffffffffffffffffffffffff161415610a64576040517f08c379a0000000000000000000000000000000000000000000000000000000008152600401610a5b90612a30565b60405180910390fd5b600360008373ffffffffffffffffffffffffffffffffffffffff1673ffffffffffffffffffffffffffffffffffffffff168152602001908152602001600020549050919050565b610ab361111e565b73ffffffffffffffffffffffffffffffffffffffff16610ad1610b33565b73ffffffffffffffffffffffffffffffffffffffff1614610b27576040517f08c379a0000000000000000000000000000000000000000000000000000000008152600401610b1e90612af0565b60405180910390fd5b610b3160006115cf565b565b6000600760009054906101000a900473ffffffffffffffffffffffffffffffffffffffff16905090565b606060018054610b6c90612e27565b80601f0160208091040260200160405190810160405280929190818152602001828054610b9890612e27565b8015610be55780601f10610bba57610100808354040283529160200191610be5565b820191906000526020600020905b815481529060010190602001808311610bc857829003601f168201915b5050505050905090565b610bf761111e565b73ffffffffffffffffffffffffffffffffffffffff168273ffffffffffffffffffffffffffffffffffffffff161415610c65576040517f08c379a0000000000000000000000000000000000000000000000000000000008152600401610c5c906129d0565b60405180910390fd5b8060056000610c7261111e565b73ffffffffffffffffffffffffffffffffffffffff1673ffffffffffffffffffffffffffffffffffffffff16815260200190815260200160002060008473ffffffffffffffffffffffffffffffffffffffff1673ffffffffffffffffffffffffffffffffffffffff16815260200190815260200160002060006101000a81548160ff0219169083151502179055508173ffffffffffffffffffffffffffffffffffffffff16610d1f61111e565b73ffffffffffffffffffffffffffffffffffffffff167f17307eab39ab6107e8899845ad3d59bd9653f200f220920489ca2b5937696c3183604051610d649190612913565b60405180910390a35050565b610d81610d7b61111e565b83611295565b610dc0576040517f08c379a0000000000000000000000000000000000000000000000000000000008152600401610db790612b70565b60405180910390fd5b610dcc84848484611695565b50505050565b6060610ddd826116f1565b9050919050565b610dec61111e565b73ffffffffffffffffffffffffffffffffffffffff16610e0a610b33565b73ffffffffffffffffffffffffffffffffffffffff1614610e60576040517f08c379a0000000000000000000000000000000000000000000000000000000008152600401610e5790612af0565b60405180910390fd5b610e7382610e6e6008611253565b611261565b610e86610e806008611253565b826111df565b610e90600861127f565b5050565b60606009604051602001610ea8919061288a565b604051602081830303815290604052905090565b6000600560008473ffffffffffffffffffffffffffffffffffffffff1673ffffffffffffffffffffffffffffffffffffffff16815260200190815260200160002060008373ffffffffffffffffffffffffffffffffffffffff1673ffffffffffffffffffffffffffffffffffffffff16815260200190815260200160002060009054906101000a900460ff16905092915050565b610f5861111e565b73ffffffffffffffffffffffffffffffffffffffff16610f76610b33565b73ffffffffffffffffffffffffffffffffffffffff1614610fcc576040517f08c379a0000000000000000000000000000000000000000000000000000000008152600401610fc390612af0565b60405180910390fd5b600073ffffffffffffffffffffffffffffffffffffffff168173ffffffffffffffffffffffffffffffffffffffff16141561103c576040517f08c379a000000000000000000000000000000000000000000000000000000000815260040161103390612970565b60405180910390fd5b611045816115cf565b50565b60007f01ffc9a7000000000000000000000000000000000000000000000000000000007bffffffffffffffffffffffffffffffffffffffffffffffffffffffff1916827bffffffffffffffffffffffffffffffffffffffffffffffffffffffff1916149050919050565b60008073ffffffffffffffffffffffffffffffffffffffff166002600084815260200190815260200160002060009054906101000a900473ffffffffffffffffffffffffffffffffffffffff1673ffffffffffffffffffffffffffffffffffffffff1614159050919050565b600033905090565b816004600083815260200190815260200160002060006101000a81548173ffffffffffffffffffffffffffffffffffffffff021916908373ffffffffffffffffffffffffffffffffffffffff160217905550808273ffffffffffffffffffffffffffffffffffffffff1661119983610941565b73ffffffffffffffffffffffffffffffffffffffff167f8c5be1e5ebec7d5bd14f71427d1e84f3dd0314c0f7b2291e5b200ac8c7c3b92560405160405180910390a45050565b6111e8826110b2565b611227576040517f08c379a000000000000000000000000000000000000000000000000000000000815260040161121e90612a70565b60405180910390fd5b8060066000848152602001908152602001600020908051906020019061124e929190611eac565b505050565b600081600001549050919050565b61127b828260405180602001604052806000815250611843565b5050565b6001816000016000828254019250508190555050565b60006112a0826110b2565b6112df576040517f08c379a00000000000000000000000000000000000000000000000000000000081526004016112d6906129f0565b60405180910390fd5b60006112ea83610941565b90508073ffffffffffffffffffffffffffffffffffffffff168473ffffffffffffffffffffffffffffffffffffffff16148061135957508373ffffffffffffffffffffffffffffffffffffffff1661134184610543565b73ffffffffffffffffffffffffffffffffffffffff16145b8061136a57506113698185610ebc565b5b91505092915050565b8273ffffffffffffffffffffffffffffffffffffffff1661139382610941565b73ffffffffffffffffffffffffffffffffffffffff16146113e9576040517f08c379a00000000000000000000000000000000000000000000000000000000081526004016113e090612b10565b60405180910390fd5b600073ffffffffffffffffffffffffffffffffffffffff168273ffffffffffffffffffffffffffffffffffffffff161415611459576040517f08c379a0000000000000000000000000000000000000000000000000000000008152600401611450906129b0565b60405180910390fd5b61146483838361189e565b61146f600082611126565b6001600360008573ffffffffffffffffffffffffffffffffffffffff1673ffffffffffffffffffffffffffffffffffffffff16815260200190815260200160002060008282546114bf9190612d3d565b925050819055506001600360008473ffffffffffffffffffffffffffffffffffffffff1673ffffffffffffffffffffffffffffffffffffffff16815260200190815260200160002060008282546115169190612cb6565b92505081905550816002600083815260200190815260200160002060006101000a81548173ffffffffffffffffffffffffffffffffffffffff021916908373ffffffffffffffffffffffffffffffffffffffff160217905550808273ffffffffffffffffffffffffffffffffffffffff168473ffffffffffffffffffffffffffffffffffffffff167fddf252ad1be2c89b69c2b068fc378daa952ba7f163c4a11628f55a4df523b3ef60405160405180910390a4505050565b6000600760009054906101000a900473ffffffffffffffffffffffffffffffffffffffff16905081600760006101000a81548173ffffffffffffffffffffffffffffffffffffffff021916908373ffffffffffffffffffffffffffffffffffffffff1602179055508173ffffffffffffffffffffffffffffffffffffffff168173ffffffffffffffffffffffffffffffffffffffff167f8be0079c531659141344cd1fd0a4f28419497f9722a3daafe3b4186f6b6457e060405160405180910390a35050565b6116a0848484611373565b6116ac848484846118a3565b6116eb576040517f08c379a00000000000000000000000000000000000000000000000000000000081526004016116e290612950565b60405180910390fd5b50505050565b60606116fc826110b2565b61173b576040517f08c379a000000000000000000000000000000000000000000000000000000000815260040161173290612ab0565b60405180910390fd5b600060066000848152602001908152602001600020805461175b90612e27565b80601f016020809104026020016040519081016040528092919081815260200182805461178790612e27565b80156117d45780601f106117a9576101008083540402835291602001916117d4565b820191906000526020600020905b8154815290600101906020018083116117b757829003601f168201915b5050505050905060006117e5611a3a565b90506000815114156117fb57819250505061183e565b600082511115611830578082604051602001611818929190612866565b6040516020818303038152906040529250505061183e565b61183984611a77565b925050505b919050565b61184d8383611b1e565b61185a60008484846118a3565b611899576040517f08c379a000000000000000000000000000000000000000000000000000000000815260040161189090612950565b60405180910390fd5b505050565b505050565b60006118c48473ffffffffffffffffffffffffffffffffffffffff16611cec565b15611a2d578373ffffffffffffffffffffffffffffffffffffffff1663150b7a026118ed61111e565b8786866040518563ffffffff1660e01b815260040161190f94939291906128c7565b602060405180830381600087803b15801561192957600080fd5b505af192505050801561195a57506040513d601f19601f8201168201806040525081019061195791906123d8565b60015b6119dd573d806000811461198a576040519150601f19603f3d011682016040523d82523d6000602084013e61198f565b606091505b506000815114156119d5576040517f08c379a00000000000000000000000000000000000000000000000000000000081526004016119cc90612950565b60405180910390fd5b805181602001fd5b63150b7a0260e01b7bffffffffffffffffffffffffffffffffffffffffffffffffffffffff1916817bffffffffffffffffffffffffffffffffffffffffffffffffffffffff191614915050611a32565b600190505b949350505050565b60606040518060400160405280600781526020017f697066733a2f2f00000000000000000000000000000000000000000000000000815250905090565b6060611a82826110b2565b611ac1576040517f08c379a0000000000000000000000000000000000000000000000000000000008152600401611ab890612b30565b60405180910390fd5b6000611acb611a3a565b90506000815111611aeb5760405180602001604052806000815250611b16565b80611af584611cff565b604051602001611b06929190612866565b6040516020818303038152906040525b915050919050565b600073ffffffffffffffffffffffffffffffffffffffff168273ffffffffffffffffffffffffffffffffffffffff161415611b8e576040517f08c379a0000000000000000000000000000000000000000000000000000000008152600401611b8590612a90565b60405180910390fd5b611b97816110b2565b15611bd7576040517f08c379a0000000000000000000000000000000000000000000000000000000008152600401611bce90612990565b60405180910390fd5b611be36000838361189e565b6001600360008473ffffffffffffffffffffffffffffffffffffffff1673ffffffffffffffffffffffffffffffffffffffff1681526020019081526020016000206000828254611c339190612cb6565b92505081905550816002600083815260200190815260200160002060006101000a81548173ffffffffffffffffffffffffffffffffffffffff021916908373ffffffffffffffffffffffffffffffffffffffff160217905550808273ffffffffffffffffffffffffffffffffffffffff16600073ffffffffffffffffffffffffffffffffffffffff167fddf252ad1be2c89b69c2b068fc378daa952ba7f163c4a11628f55a4df523b3ef60405160405180910390a45050565b600080823b905060008111915050919050565b60606000821415611d47576040518060400160405280600181526020017f30000000000000000000000000000000000000000000000000000000000000008152509050611ea7565b600082905060005b60008214611d79578080611d6290612e8a565b915050600a82611d729190612d0c565b9150611d4f565b60008167ffffffffffffffff811115611dbb577f4e487b7100000000000000000000000000000000000000000000000000000000600052604160045260246000fd5b6040519080825280601f01601f191660200182016040528015611ded5781602001600182028036833780820191505090505b5090505b60008514611ea057600182611e069190612d3d565b9150600a85611e159190612ed3565b6030611e219190612cb6565b60f81b818381518110611e5d577f4e487b7100000000000000000000000000000000000000000000000000000000600052603260045260246000fd5b60200101907effffffffffffffffffffffffffffffffffffffffffffffffffffffffffffff1916908160001a905350600a85611e999190612d0c565b9450611df1565b8093505050505b919050565b828054611eb890612e27565b90600052602060002090601f016020900481019282611eda5760008555611f21565b82601f10611ef357805160ff1916838001178555611f21565b82800160010185558215611f21579182015b82811115611f20578251825591602001919060010190611f05565b5b509050611f2e9190611f32565b5090565b5b80821115611f4b576000816000905550600101611f33565b5090565b6000611f62611f5d84612bd0565b612bab565b9050808382526020820190508260005b85811015611fa25781358501611f8888826120fa565b845260208401935060208301925050600181019050611f72565b5050509392505050565b6000611fbf611fba84612bfc565b612bab565b905082815260208101848484011115611fd757600080fd5b611fe2848285612de5565b509392505050565b6000611ffd611ff884612c2d565b612bab565b90508281526020810184848401111561201557600080fd5b612020848285612de5565b509392505050565b600081359050612037816134f0565b92915050565b600082601f83011261204e57600080fd5b813561205e848260208601611f4f565b91505092915050565b60008135905061207681613507565b92915050565b60008135905061208b8161351e565b92915050565b6000815190506120a08161351e565b92915050565b600082601f8301126120b757600080fd5b81356120c7848260208601611fac565b91505092915050565b600082601f8301126120e157600080fd5b81356120f1848260208601611fea565b91505092915050565b60006040828403121561210c57600080fd5b6121166040612bab565b9050600061212684828501612028565b600083015250602082013567ffffffffffffffff81111561214657600080fd5b612152848285016120d0565b60208301525092915050565b60008135905061216d81613535565b92915050565b60006020828403121561218557600080fd5b600061219384828501612028565b91505092915050565b600080604083850312156121af57600080fd5b60006121bd85828601612028565b92505060206121ce85828601612028565b9150509250929050565b6000806000606084860312156121ed57600080fd5b60006121fb86828701612028565b935050602061220c86828701612028565b925050604061221d8682870161215e565b9150509250925092565b6000806000806080858703121561223d57600080fd5b600061224b87828801612028565b945050602061225c87828801612028565b935050604061226d8782880161215e565b925050606085013567ffffffffffffffff81111561228a57600080fd5b612296878288016120a6565b91505092959194509250565b600080604083850312156122b557600080fd5b60006122c385828601612028565b92505060206122d485828601612067565b9150509250929050565b600080604083850312156122f157600080fd5b60006122ff85828601612028565b925050602083013567ffffffffffffffff81111561231c57600080fd5b612328858286016120d0565b9150509250929050565b6000806040838503121561234557600080fd5b600061235385828601612028565b92505060206123648582860161215e565b9150509250929050565b60006020828403121561238057600080fd5b600082013567ffffffffffffffff81111561239a57600080fd5b6123a68482850161203d565b91505092915050565b6000602082840312156123c157600080fd5b60006123cf8482850161207c565b91505092915050565b6000602082840312156123ea57600080fd5b60006123f884828501612091565b91505092915050565b60006020828403121561241357600080fd5b60006124218482850161215e565b91505092915050565b6000806040838503121561243d57600080fd5b600061244b8582860161215e565b925050602083013567ffffffffffffffff81111561246857600080fd5b612474858286016120d0565b9150509250929050565b61248781612d71565b82525050565b61249681612d83565b82525050565b60006124a782612c73565b6124b18185612c89565b93506124c1818560208601612df4565b6124ca81612fc0565b840191505092915050565b60006124e082612c7e565b6124ea8185612c9a565b93506124fa818560208601612df4565b61250381612fc0565b840191505092915050565b600061251982612c7e565b6125238185612cab565b9350612533818560208601612df4565b80840191505092915050565b6000815461254c81612e27565b6125568186612cab565b945060018216600081146125715760018114612582576125b5565b60ff198316865281860193506125b5565b61258b85612c5e565b60005b838110156125ad5781548189015260018201915060208101905061258e565b838801955050505b50505092915050565b60006125cb603283612c9a565b91506125d682612fd1565b604082019050919050565b60006125ee602683612c9a565b91506125f982613020565b604082019050919050565b6000612611601c83612c9a565b915061261c8261306f565b602082019050919050565b6000612634602483612c9a565b915061263f82613098565b604082019050919050565b6000612657601983612c9a565b9150612662826130e7565b602082019050919050565b600061267a602c83612c9a565b915061268582613110565b604082019050919050565b600061269d600783612cab565b91506126a88261315f565b600782019050919050565b60006126c0603883612c9a565b91506126cb82613188565b604082019050919050565b60006126e3602a83612c9a565b91506126ee826131d7565b604082019050919050565b6000612706602983612c9a565b915061271182613226565b604082019050919050565b6000612729602e83612c9a565b915061273482613275565b604082019050919050565b600061274c602083612c9a565b9150612757826132c4565b602082019050919050565b600061276f603183612c9a565b915061277a826132ed565b604082019050919050565b6000612792602c83612c9a565b915061279d8261333c565b604082019050919050565b60006127b5602083612c9a565b91506127c08261338b565b602082019050919050565b60006127d8602983612c9a565b91506127e3826133b4565b604082019050919050565b60006127fb602f83612c9a565b915061280682613403565b604082019050919050565b600061281e602183612c9a565b915061282982613452565b604082019050919050565b6000612841603183612c9a565b915061284c826134a1565b604082019050919050565b61286081612ddb565b82525050565b6000612872828561250e565b915061287e828461250e565b91508190509392505050565b600061289582612690565b91506128a1828461253f565b915081905092915050565b60006020820190506128c1600083018461247e565b92915050565b60006080820190506128dc600083018761247e565b6128e9602083018661247e565b6128f66040830185612857565b8181036060830152612908818461249c565b905095945050505050565b6000602082019050612928600083018461248d565b92915050565b6000602082019050818103600083015261294881846124d5565b905092915050565b60006020820190508181036000830152612969816125be565b9050919050565b60006020820190508181036000830152612989816125e1565b9050919050565b600060208201905081810360008301526129a981612604565b9050919050565b600060208201905081810360008301526129c981612627565b9050919050565b600060208201905081810360008301526129e98161264a565b9050919050565b60006020820190508181036000830152612a098161266d565b9050919050565b60006020820190508181036000830152612a29816126b3565b9050919050565b60006020820190508181036000830152612a49816126d6565b9050919050565b60006020820190508181036000830152612a69816126f9565b9050919050565b60006020820190508181036000830152612a898161271c565b9050919050565b60006020820190508181036000830152612aa98161273f565b9050919050565b60006020820190508181036000830152612ac981612762565b9050919050565b60006020820190508181036000830152612ae981612785565b9050919050565b60006020820190508181036000830152612b09816127a8565b9050919050565b60006020820190508181036000830152612b29816127cb565b9050919050565b60006020820190508181036000830152612b49816127ee565b9050919050565b60006020820190508181036000830152612b6981612811565b9050919050565b60006020820190508181036000830152612b8981612834565b9050919050565b6000602082019050612ba56000830184612857565b92915050565b6000612bb5612bc6565b9050612bc18282612e59565b919050565b6000604051905090565b600067ffffffffffffffff821115612beb57612bea612f91565b5b602082029050602081019050919050565b600067ffffffffffffffff821115612c1757612c16612f91565b5b612c2082612fc0565b9050602081019050919050565b600067ffffffffffffffff821115612c4857612c47612f91565b5b612c5182612fc0565b9050602081019050919050565b60008190508160005260206000209050919050565b600081519050919050565b600081519050919050565b600082825260208201905092915050565b600082825260208201905092915050565b600081905092915050565b6000612cc182612ddb565b9150612ccc83612ddb565b9250827fffffffffffffffffffffffffffffffffffffffffffffffffffffffffffffffff03821115612d0157612d00612f04565b5b828201905092915050565b6000612d1782612ddb565b9150612d2283612ddb565b925082612d3257612d31612f33565b5b828204905092915050565b6000612d4882612ddb565b9150612d5383612ddb565b925082821015612d6657612d65612f04565b5b828203905092915050565b6000612d7c82612dbb565b9050919050565b60008115159050919050565b60007fffffffff0000000000000000000000000000000000000000000000000000000082169050919050565b600073ffffffffffffffffffffffffffffffffffffffff82169050919050565b6000819050919050565b82818337600083830152505050565b60005b83811015612e12578082015181840152602081019050612df7565b83811115612e21576000848401525b50505050565b60006002820490506001821680612e3f57607f821691505b60208210811415612e5357612e52612f62565b5b50919050565b612e6282612fc0565b810181811067ffffffffffffffff82111715612e8157612e80612f91565b5b80604052505050565b6000612e9582612ddb565b91507fffffffffffffffffffffffffffffffffffffffffffffffffffffffffffffffff821415612ec857612ec7612f04565b5b600182019050919050565b6000612ede82612ddb565b9150612ee983612ddb565b925082612ef957612ef8612f33565b5b828206905092915050565b7f4e487b7100000000000000000000000000000000000000000000000000000000600052601160045260246000fd5b7f4e487b7100000000000000000000000000000000000000000000000000000000600052601260045260246000fd5b7f4e487b7100000000000000000000000000000000000000000000000000000000600052602260045260246000fd5b7f4e487b7100000000000000000000000000000000000000000000000000000000600052604160045260246000fd5b6000601f19601f8301169050919050565b7f4552433732313a207472616e7366657220746f206e6f6e20455243373231526560008201527f63656976657220696d706c656d656e7465720000000000000000000000000000602082015250565b7f4f776e61626c653a206e6577206f776e657220697320746865207a65726f206160008201527f6464726573730000000000000000000000000000000000000000000000000000602082015250565b7f4552433732313a20746f6b656e20616c7265616479206d696e74656400000000600082015250565b7f4552433732313a207472616e7366657220746f20746865207a65726f2061646460008201527f7265737300000000000000000000000000000000000000000000000000000000602082015250565b7f4552433732313a20617070726f766520746f2063616c6c657200000000000000600082015250565b7f4552433732313a206f70657261746f7220717565727920666f72206e6f6e657860008201527f697374656e7420746f6b656e0000000000000000000000000000000000000000602082015250565b7f697066733a2f2f00000000000000000000000000000000000000000000000000600082015250565b7f4552433732313a20617070726f76652063616c6c6572206973206e6f74206f7760008201527f6e6572206e6f7220617070726f76656420666f7220616c6c0000000000000000602082015250565b7f4552433732313a2062616c616e636520717565727920666f7220746865207a6560008201527f726f206164647265737300000000000000000000000000000000000000000000602082015250565b7f4552433732313a206f776e657220717565727920666f72206e6f6e657869737460008201527f656e7420746f6b656e0000000000000000000000000000000000000000000000602082015250565b7f45524337323155524953746f726167653a2055524920736574206f66206e6f6e60008201527f6578697374656e7420746f6b656e000000000000000000000000000000000000602082015250565b7f4552433732313a206d696e7420746f20746865207a65726f2061646472657373600082015250565b7f45524337323155524953746f726167653a2055524920717565727920666f722060008201527f6e6f6e6578697374656e7420746f6b656e000000000000000000000000000000602082015250565b7f4552433732313a20617070726f76656420717565727920666f72206e6f6e657860008201527f697374656e7420746f6b656e0000000000000000000000000000000000000000602082015250565b7f4f776e61626c653a2063616c6c6572206973206e6f7420746865206f776e6572600082015250565b7f4552433732313a207472616e73666572206f6620746f6b656e2074686174206960008201527f73206e6f74206f776e0000000000000000000000000000000000000000000000602082015250565b7f4552433732314d657461646174613a2055524920717565727920666f72206e6f60008201527f6e6578697374656e7420746f6b656e0000000000000000000000000000000000602082015250565b7f4552433732313a20617070726f76616c20746f2063757272656e74206f776e6560008201527f7200000000000000000000000000000000000000000000000000000000000000602082015250565b7f4552433732313a207472616e736665722063616c6c6572206973206e6f74206f60008201527f776e6572206e6f7220617070726f766564000000000000000000000000000000602082015250565b6134f981612d71565b811461350457600080fd5b50565b61351081612d83565b811461351b57600080fd5b50565b61352781612d8f565b811461353257600080fd5b50565b61353e81612ddb565b811461354957600080fd5b5056fea2646970667358221220b06e0e9546d7fd46e5e75bc9d5b3b35916323fb5f6f971a32028222ec0eca8eb64736f6c63430008020033",
  "linkReferences": {},
  "deployedLinkReferences": {}
}